:100000000C9429020C9451020C9451020C9451024C
:100010000C9451020C9451020C9451020C94510214
:100020000C9451020C9451020C9451020C94510204
:100030000C9451020C9451020C9451020C945102F4
:100040000C94190A0C9451020C9451020C94510214
:100050000C9451020C9451020C9451020C945102D4
:100060000C94EC080C945102000000000000000009
:1000700030787830300030006C6C6C00000000008C
:100080006C6CFE6CFE6C6C00307CC0780CF8300040
:1000900000C6CC183066C600386C3876DCCC7600EA
:1000A0006060C00000000000183060606030180020
:1000B000603018181830600000663CFF3C66000095
:1000C000003030FC30300000000000000070306074
:1000D000000000FC000000000000000000303000C4
:1000E000060C183060C0800078CCDCFCECCC7800CA
:1000F00030F030303030FC0078CC0C3860CCFC0074
:1001000078CC0C380CCC78001C3C6CCCFE0C0C0071
:10011000FCC0F80C0CCC78003860C0F8CCCC78006F
:10012000FCCC0C183060600078CCCC78CCCC78005B
:1001300078CCCC7C0C1870000000303000303000DF
:100140000000303000703060183060C0603018003F
:100150000000FC00FC0000006030180C183060004B
:1001600078CC0C18300030007CC6DEDEDEC07800B3
:100170003078CCCCFCCCCC00FC66667C6666FC009F
:100180003C66C0C0C0663C00FC6C6666666CFC00E9
:10019000FE6268786862FE00FE6268786860F0005F
:1001A0003C66C0C0CE663E00CCCCCCFCCCCCCC00F7
:1001B00078303030303078001E0C0C0CCCCC78000D
:1001C000E6666C786C66E600F06060606266FE0071
:1001D000C6EEFED6C6C6C600C6E6F6DECEC6C6006B
:1001E000386CC6C6C66C3800FC66667C6060F00081
:1001F00078CCCCCCDC781C00FC66667C786CE600A5
:1002000078CCE0381CCC7800FCB43030303078004A
:10021000CCCCCCCCCCCCFC00CCCCCCCCCC78300076
:10022000C6C6C6D6FEEEC600C6C66C386CC6C600CC
:10023000CCCCCC7830307800FECC983062C6FE0052
:100240007860606060607800C06030180C06020062
:10025000781818181818780010386CC600000000BC
:1002600000000000000000FF303018000000000017
:100270000000780C7CCC7600E0607C666666BC0092
:10028000000078CCC0CC78001C0C0C7CCCCC760068
:10029000000078CCFCC07800386C60F06060F00042
:1002A000000076CCCC7C0CF8E0606C766666E600EC
:1002B0003000703030307800180078181818D87076
:1002C000E060666C786CE60070303030303078007A
:1002D0000000ECFED6C6C6000000F8CCCCCCCC00AA
:1002E000000078CCCCCC78000000DC66667C60F046
:1002F000000076CCCC7C0C1E0000D86C6C60F0004A
:1003000000007CC0780CF80010307C3030341800CD
:100310000000CCCCCCCC76000000CCCCCC7830002B
:100320000000C6C6D6FE6C000000C66C386CC60065
:100330000000CCCCCC7C0CF80000FC983064FC00B5
:100340001C3030E030301C00181818001818180045
:10035000E030301C3030E00076DC000000000000AF
:1003600010386CC6C6C6FE004128D441CF83008336
:100370003041ED846403128141E88385017941CBEA
:1003800085392C00340241F7812041EA8200004186
:10039000C0812641C1811141C582353E41C781BE20
:1003A00041B182001B41F281084126810141E08F69
:1003B0001F1A180A0F064587320A0702070500416F
:1003C000E18F0025270510093A784D05180D383AB8
:1003D0001F41B6840A82270041B78107413A8155FF
:1003E000413681E8412A82000082013F412B820090
:1003F000008200EF4111FCFC4129D4FFFF00000006
:1004000008000201000003040700000000000000D3
:10041000000102040810204080010204081020019D
:100420000204081020040404040404040402020268
:100430000202020303030303030000000025002857
:10044000002B0000000000240027002A0000080301
:10045000BF0811241FBECFEFD8E0DEBFCDBF11E033
:10046000A0E0B1E0E4E3FEE102C005900D92AE34FD
:10047000B107D9F722E0AEE4B1E001C01D92AC357E
:10048000B207E1F714E0C2E5D4E004C02297FE0110
:100490000E94CE0CCE34D107C9F70E94F7020C940B
:1004A000180F0C940000AF92BF92CF92DF92EF92A0
:1004B000FF920F931F93CF93DF93EC016B015A01CF
:1004C000EE24EA94FE2C08E010E028E030E0AB01D6
:1004D000BE018EE491E00E94D50566E071E0C501A1
:1004E0000E948E0C882329F080E2E82E83E0F82E0B
:1004F00002C0E12CF12C07E010E027E030E0A6017B
:10050000BE018EE491E00E946105DF91CF911F91C1
:100510000F91FF90EF90DF90CF90BF90AF90089534
:10052000CF92DF92EF92FF920F931F93CF93DF93BF
:1005300000D000D000D0CDB7DEB700E010E07801E9
:10054000C12CD12C6CE071E0CE0101960E94780C98
:10055000AE014F5F5F4FB601C7010E945302CE014B
:1005600001960E940A0C88E0C80ED11C88E2C816C9
:10057000D10441F720EAC22ED12C66E071E0CE0111
:1005800001960E94780CAE014F5F5F4FB601C70124
:100590000E945302CE0101960E940A0C88E0C80E08
:1005A000D11C80EFC816D10441F788E0E80EF11C99
:1005B00080E4E81681E0F8061CF2003F110511F412
:1005C00000E010E00F5F1F4F013F11050CF4B7CFA3
:1005D00026960FB6F894DEBF0FBECDBFDF91CF9148
:1005E0001F910F91FF90EF90DF90CF9008950E94A0
:1005F000AE0A8EE491E00E94EF076FEF7FEF8EE48A
:1006000091E00E94D2040E94900280E090E0089560
:100610008EE491E00C9458062F923F924F925F9295
:100620006F927F928F929F92AF92BF92CF92DF9202
:10063000EF92FF920F931F93CF93DF9300D01F92FF
:10064000CDB7DEB79B838A83380188E0280250014A
:100650001124D501A859B0405D01BC2DBF77CB2E28
:10066000EA81FB8186819781F1E0FB1708F462C083
:100670006B0128E0C20ED11C8C159D050CF46DC0D9
:10068000AA81BB8118962D913C911997FA01389651
:100690002E173F070CF461C0AA81BB81ED91FC913C
:1006A00011978A01095F1F4F9B01295F3F4F068009
:1006B000F781E02DCD010995AA81BB81ED91FC91D7
:1006C00011970084F185E02DCD0109958501085F22
:1006D0001F4FF5015490FFEFAF1ABF0A98E0892E23
:1006E000912C20E8422EAA81BB81ED91FC911197BB
:1006F000842D85210284F385E02D882319F0B30130
:10070000CD0103C0B7018A819B8109954694B1E070
:100710008B1A910841F7A016B106D9F6AA81BB81C0
:10072000ED91FC9111970484F585E02DCD0109959B
:10073000C60175C0B8E0CB9E800111244B01800E2C
:10074000911E881599054CF0040F151FEA81FB8155
:10075000208531852017310714F4019660C0AA81E5
:10076000BB81ED91FC911197015011090680F78131
:10077000E02D940121503109CD010995AA81BB8159
:10078000ED91FC9111970084F185E02DCD01099543
:100790002501B8E04B0E511CF501D490FFEFAF1AC4
:1007A000BF0A2C2C08E010E080E8382E832D8D2124
:1007B0002C2DA1F0AA81BB81ED91FC9111970284AF
:1007C000F385E02DB301CD012983099529812150BD
:1007D00089F736940150110949F710C0AA81BB81ED
:1007E000ED91FC9111970284F385E02DB701CD01C5
:1007F000298309952981215089F7EBCF2A9491F615
:10080000A414B50409F0C8CFAA81BB81ED91FC9175
:1008100011970484F585E02DCD010995C4010F9051
:100820000F900F90DF91CF911F910F91FF90EF905C
:10083000DF90CF90BF90AF909F908F907F906F9000
:100840005F904F903F902F900895CF92EF92FF923C
:100850000F931F93DC01ED91FC910684F785E02D49
:1008600009951F910F91FF90EF90CF900895CF922F
:10087000EF92FF920F931F93CF93DF93EC01262FFC
:100880006A3081F48EAD9FAD9BAF8AAF2CA92F77D4
:100890008CAD9DAD38E0239F800D911D11249DAF3F
:1008A0008CAF47C0862F8B7F893009F442C06AAD78
:1008B0007BAD203219F461157105D9F1E881F98118
:1008C000E8ACF9AC0EA91FA94CAD5DAD0088F1896B
:1008D000E02DCCA8CE0109959BAF8AAF2DA922238C
:1008E00041F14CA94F77642F70E028EF2403A00159
:1008F00011242E813F81240F351F28173907CCF48E
:100900008EAD9FAD9BAF8AAFCB0133E0880F991FAF
:100910003A95E1F72CAD3DAD820F931F9DAF8CAFA3
:1009200028853985240F351F2817390714F41DAE83
:100930001CAE81E090E0DF91CF911F910F91FF906D
:10094000EF90CF900895FC011382128286E191E02E
:1009500091838083158214827783668351874087D1
:10096000178616861586148613861286178A168AA7
:10097000158A148A138A128A118A108A10AA11AA57
:1009800012AA13AA81E084AB85AB17AA16AA8FEF2F
:100990009FEF91AF80AF17AE16AE15AE14AE13AE8B
:1009A00012AE0895AF92BF92CF92DF92EF92FF9274
:1009B0000F931F93CF93DF93EC015B01E881F981E3
:1009C00008851985015011092E813F812150310977
:1009D0000680F781E02D40E050E060E070E009958E
:1009E000E881F9810084F185E02DCE010995AE8181
:1009F000BF81288539850E94AE0C6B017C0143E0E4
:100A0000F694E794D794C7944A95D1F7E881F98191
:100A1000C114D104E104F10409F444C00284F38553
:100A2000E02DB501CE010995E881F9810284F385B5
:100A3000E02DB501CE010995E881F9810284F385A5
:100A4000E02DB501CE010995E881F9810284F38595
:100A5000E02DB501CE010995E881F9810284F38585
:100A6000E02DB501CE010995E881F9810284F38575
:100A7000E02DB501CE010995E881F9810284F38565
:100A8000E02DB501CE010995E881F9810284F38555
:100A9000E02DB501CE01099581E0C81AD108E10821
:100AA000F108B4CF0484F585E02DCE01DF91CF911C
:100AB0001F910F91FF90EF90DF90CF90BF90AF907C
:100AC00009948F929F92AF92BF92CF92DF92EF9252
:100AD000FF920F931F93CF93DF93EC0169014801BD
:100AE00057012E813F81621773071CF0B9016150D5
:100AF000710988859985481759071CF0AC01415048
:100B00005109FB01EC0DFD1DE217F3071CF0690113
:100B1000C61AD70A9A01280D391D281739071CF063
:100B20004C01841A950AE881F9818A01080D191D82
:100B3000015011099B012C0D3D1D215031090680EA
:100B4000F781E02DCE010995E881F9810084F185D6
:100B5000E02DCE0109959401D6010E94AE0C6B01E7
:100B60007C01E881F981C114D104E104F10461F050
:100B70000284F385E02DB501CE01099581E0C81A04
:100B8000D108E108F108EDCF0484F585E02DCE0110
:100B9000DF91CF911F910F91FF90EF90DF90CF9059
:100BA000BF90AF909F908F9009944F925F926F92F9
:100BB0007F928F929F92AF92BF92CF92DF92EF92ED
:100BC000FF920F931F93CF93DF93EC016B015A01B8
:100BD0002901380121E030E00E946105A501460DA0
:100BE000571D4150510901E010E09201B601CE01BC
:100BF0000E946105B601640D751D61507109830184
:100C000021E030E0A501CE010E94610501E010E085
:100C10009201A501B601CE010E946105DF91CF913D
:100C20001F910F91FF90EF90DF90CF90BF90AF900A
:100C30009F908F907F906F905F904F9008955F9AF4
:100C400008958EBD00000DB407FEFDCF8EB508954A
:100C5000CF93DF931F92CDB7DEB7872F2B9A2D98B6
:100C60009CB59F7B9CBD2D9A9CB590649CBD69836F
:100C70000E9421062B9A2D989CB59F7B9CBD2D9A96
:100C80009CB590649CBD6981862F0F90DF91CF91B8
:100C90000C9421062CB5982F93702C7F922B9CBD21
:100CA0009DB582FB882780F99E7F982B9DBD089576
:100CB000CF93DF93EC0140EF50E060E471E00E94DD
:100CC000A3048CE291E099838883DF91CF9108950A
:100CD000862F5F982B982D989CB59F7B9CBD2D9A55
:100CE0009CB590649CBD0E9421065F9A08956CE2B9
:100CF0000E9468065F980895CF93DF931F92CDB747
:100D0000DEB7872F5F982B9A2D989CB59F7B9CBD53
:100D10002D9A9CB590649CBD69830E9421062B9AF4
:100D20002D989CB59F7B9CBD2D9A9CB590649CBDD5
:100D30006981862F0E9421065F9A0F90DF91CF91E3
:100D40000895AF92BF92CF92DF92EF92FF920F93EE
:100D50001F93CF93DF93EC017B016A0159016AE293
:100D60000E946806B701CE010E947C06B501CE0143
:100D70000E947C066BE2CE010E946806B601CE019D
:100D80000E947C06B801CE01DF91CF911F910F9197
:100D9000FF90EF90DF90CF90BF90AF900C947C06C7
:100DA000862F5F982B9A2D989CB59F7B9CBD2D9A82
:100DB0009CB590649CBD0E9421065F9A08950F9394
:100DC0001F93CF93DF93EC016930710519F06A35F9
:100DD000710571F48AE590E09D838C8380EF90E04B
:100DE0009F838E8380E491E09987888718E434C0DC
:100DF0006231710519F0643B710571F484EB90E088
:100E00009D838C8380E491E09F838E8380EF90E0CC
:100E10009987888718E320C06B31710521F07E7FA8
:100E20006E30710571F48EE091E09D838C8380EFCC
:100E300090E09F838E8380E491E09987888718E80B
:100E40000BC01D821C8280E491E09F838E8380EF23
:100E500090E09987888718EE66E3CE010E946806C5
:100E6000612FCE010E94D006E881F981088519859D
:100E7000015011092E813F81215031090680F781EF
:100E8000E02D40E050E060E070E0CE010995DF9198
:100E9000CF911F910F910895CF92DF92EF92FF9221
:100EA0000F931F93CF93DF938C015F9A289862E38F
:100EB00070E080E090E00E94860A289A68E770E07F
:100EC00080E090E00E94860AE8E6F3E0EF012196D8
:100ED00084918F3FA9F1982F907C9038B1F0903C8D
:100EE00039F1903411F0FE01F1CF8F73C82E7F01DC
:100EF000D82EFFEFEF1AFF0ADD20B9F0F701649159
:100F0000C8010E946806DA94F4CF8F73C82E7F015F
:100F1000D82EFFEFEF1AFF0ADD2039F0F7016491B8
:100F2000C8010E94D006DA94F4CFCC0DD11DDBCFDE
:100F3000682F6F7370E080E090E00E94860AD3CF44
:100F400060E070E0C801DF91CF911F910F91FF9099
:100F5000EF90DF90CF900C94D2041F93CF93DF9348
:100F6000EC01162F61E088E00E94710B289861E087
:100F700089E00E94710B61E087E00E94710B61E0E3
:100F80008DE00E94710B61E08BE00E94710B60E0CC
:100F90008CE00E94710B29985F9A61E086E00E94C4
:100FA000710B5E9AFE01E05CFF4F10839CB5937F4E
:100FB0009CBD9CB59F7D9CBD0E94F20785E00E9470
:100FC0004A06CE010E944C07812F0E944A066FE715
:100FD00070E089E0DF91CF911F910C94E90A60E005
:100FE0000C94AD07CF93CFB7F89480918F01811106
:100FF00027C0EFE2F4E08491EBE1F4E09491E82F74
:10100000F0E0EE0FFF1FED5BFB4FA591B4918C91CB
:10101000892321F461E08AE00E94AA0B61E08AE062
:101020000E94710B8CB580618CBD8CB580648CBDC9
:1010300061E08DE00E94710B61E08BE00E94710B1A
:1010400080918F018F5F80938F01CFBFCF910895E3
:101050008091BF0190E02091C001821B9109089509
:101060002091C0018091BF01281750F4E22FF0E0D9
:10107000EF53FE4F808190E02F5F2093C0010895D1
:101080008FEF9FEF0895E091C0018091BF01E817B5
:1010900030F4F0E0EF53FE4F808190E008958FEF41
:1010A0009FEF08950895CF92DF92EF92FF920F93F2
:1010B0001F93CF93DF937C01CB018A0120919C0188
:1010C000222389F0EB016B01C40ED51ECC15DD0582
:1010D00069F06991D701ED91FC910190F081E02DCB
:1010E000C7010995F3CF642F0E94C308C801DF919F
:1010F000CF911F910F91FF90EF90DF90CF900895C7
:10110000CF93DF931F92CDB7DEB7698320919C0107
:101110002223D1F020919D01203240F021E030E0E7
:10112000FC013383228380E090E015C080919E0112
:10113000E82FF0E0E156FE4F998190838F5F809316
:101140009E0180939D0105C061E0CE0101960E9441
:10115000C30881E090E00F90DF91CF910895FC01EA
:101160001382128248EE53E060E070E044835583BE
:101170006683778382E491E091838083089580E998
:1011800091E00C94AF08613298F420914E02243023
:1011900089F460930302FC0185E092E0DC012A2FD0
:1011A000281B261718F421912D93F9CF80E008957C
:1011B00081E0089582E0089585ED8093BC008091E0
:1011C000BC0084FDFCCF10924E02089585EC809304
:1011D000BC0010924E0208951F920F920FB60F920C
:1011E00011242F933F934F935F936F937F938F932C
:1011F0009F93AF93BF93EF93FF938091B900887F44
:10120000803609F49CC068F5883209F45BC090F41C
:10121000803109F454C038F4882309F4F5C08830CB
:1012200009F44DC0F5C0883109F44CC0803209F48E
:101230005DC0EEC0803409F468C048F4803309F41E
:1012400055C0883309F0E4C08093E101A8C080351F
:1012500009F44FC0883509F45DC0883409F0D8C05E
:10126000D5C0883909F4C6C0A8F4883709F467C026
:1012700038F4883609F463C0803709F460C0C8C008
:10128000883809F4B7C0803909F45FC0803809F0A4
:10129000BFC05BC0803B09F485C038F4803A09F4D4
:1012A00066C0883A09F47EC0B3C0803C09F4A6C089
:1012B000883C09F4A3C0883B09F489C0A9C0809187
:1012C0004D0210C09091260280912502981770F56A
:1012D000E091260281E08E0F80932602F0E0E95D26
:1012E000FD4F80818093BB0085EC85C08093E10138
:1012F0008DC0E091260281E08E0F809326028091BE
:10130000BB00F0E0E95DFD4F808390912602809163
:1013100025026DC0E091260281E08E0F80932602A7
:101320008091BB00F0E0E95DFD4F808380914C022D
:1013300081116CC081E080934B0284EA60C083E03D
:1013400080934E021092E201CFCF8091E201803271
:1013500008F050C0E091E20181E08E0F8093E2013D
:101360008091BB00F0E0ED51FE4F8083BDCF8091B6
:10137000E201803230F4E091E201F0E0ED51FE4F05
:1013800010820E94DC086091E20170E0E091470267
:10139000F091480283EE91E009951092E2010E94DB
:1013A000E60836C084E080934E0210920402109248
:1013B0000302E0914902F0914A02099580910302EB
:1013C000811105C081E08093030210920502E09133
:1013D000040281E08E0F80930402F0E0EB5FFD4F8A
:1013E00080818093BB009091040280910302981742
:1013F00008F47ACF85E88093BC000AC085EC80931E
:10140000BC0010924E0204C01092E1010E94DC0860
:10141000FF91EF91BF91AF919F918F917F916F91CC
:101420005F914F913F912F910F900FBE0F901F90A2
:1014300018951F920F920FB60F9211242F933F937E
:101440008F939F93AF93BF938091500290915102DD
:10145000A0915202B091530230914F0223E0230F2A
:101460002D3720F40196A11DB11D05C026E8230FDC
:101470000296A11DB11D20934F02809350029093BC
:101480005102A0935202B093530280915402909162
:101490005502A0915602B09157020196A11DB11DAF
:1014A0008093540290935502A0935602B093570232
:1014B000BF91AF919F918F913F912F910F900FBE50
:1014C0000F901F9018953FB7F89480915402909117
:1014D0005502A0915602B091570226B5A89B05C0AF
:1014E0002F3F19F00196A11DB11D3FBF6627782F30
:1014F000892F9A2F620F711D811D911D42E0660F89
:10150000771F881F991F4A95D1F70895CF92DF92D0
:10151000EF92FF92CF93DF936B017C010E94630AED
:10152000EB01C114D104E104F10489F00E94AD0C77
:101530000E94630A6C1B7D0B683E734090F381E050
:10154000C81AD108E108F108C851DC4FEACFDF9191
:10155000CF91FF90EF90DF90CF900895789484B56D
:10156000826084BD84B5816084BD85B5826085BD9F
:1015700085B5816085BDEEE6F0E080818160808385
:10158000E1E8F0E010828081826080838081816068
:101590008083E0E8F0E0808181608083E1EBF0E02F
:1015A000808184608083E0EBF0E0808181608083D3
:1015B000EAE7F0E0808184608083808182608083BC
:1015C0008081816080838081806880831092C100E7
:1015D00008951F93CF93DF93182FEB0161E00E94D2
:1015E000710B209711F460E004C0CF3FD10539F4AE
:1015F00061E0812FDF91CF911F910C94AA0BE12F15
:10160000F0E0E350FC4FE491E330F9F048F4E130CE
:10161000B9F0E230A1F584B5806284BDC8BD34C0A4
:10162000E730E9F0E83019F1E43049F580918000C5
:10163000806280938000D0938B00C0938A0024C086
:1016400084B5806884BDC7BD1FC08091800080685C
:1016500080938000D0938900C093880015C080914A
:10166000B00080688093B000C093B3000DC080913B
:10167000B00080628093B000C093B40005C0C03851
:10168000D1050CF0B5CFAFCFDF91CF911F91089569
:10169000833081F028F4813099F08230A1F00895F0
:1016A0008730A9F08830B9F08430D1F4809180007F
:1016B0008F7D03C0809180008F7780938000089594
:1016C00084B58F7702C084B58F7D84BD08958091E5
:1016D000B0008F7703C08091B0008F7D8093B00001
:1016E0000895CF93DF9390E0FC01EF5EFB4F2491D0
:1016F000FC01EB5DFB4F8491882349F190E0880F5A
:10170000991FFC01ED5BFB4FA591B491875C9B4F4A
:10171000FC01C591D4919FB7611108C0F8948C91D8
:10172000209582238C93888182230AC0623051F4F1
:10173000F8948C91322F309583238C938881822B5F
:10174000888304C0F8948C91822B8C939FBFDF9187
:10175000CF9108950F931F93CF93DF931F92CDB72F
:10176000DEB7282F30E0F901E350FC4F8491F901F6
:10177000EF5EFB4F1491F901EB5DFB4F04910023E9
:10178000C9F0882321F069830E94480B6981E02F0A
:10179000F0E0EE0FFF1FE75CFB4FA591B4919FB700
:1017A000F8948C91611103C01095812301C0812BA5
:1017B0008C939FBF0F90DF91CF911F910F91089550
:1017C0000E94C30ECF92DF92EF92FF920F931F936E
:1017D000CF93DF936C017A01EB01E60EF71E00E078
:1017E00010E0CE15DF0561F06991D601ED91FC9115
:1017F0000190F081E02DC6010995080F191FF1CF66
:10180000C801DF91CF911F910F91FF90EF90DF9072
:10181000CF900895FC01808191810C946A0DCF9343
:10182000DF93EC0188819981009711F00E946A0D85
:10183000198218821D821C821B821A82DF91CF912D
:1018400008950F931F93CF93DF93EC018B016F5F8C
:101850007F4F888199810E94F90D009731F099831B
:1018600088831B830A8381E001C080E0DF91CF91F0
:101870001F910F910895CF93DF93EC018881998197
:10188000892B29F08A819B818617970760F4CE0106
:101890000E94210C882341F08C819D81892B19F4B1
:1018A000E881F981108281E0DF91CF910895EF9274
:1018B000FF920F931F93CF93DF93EC017B018A017B
:1018C000BA010E943B0C811104C0CE010E940F0C92
:1018D00007C01D830C83B701888199810E94DA0EAD
:1018E000CE01DF91CF911F910F91FF90EF9008955E
:1018F000FC011182108213821282158214826115FA
:10190000710559F0FB0101900020E9F7AF0141504A
:101910005109461B570B0C94570C0895FC01248168
:101920003581232B31F421E061157105A1F0FB0114
:1019300008C0FC01808191816115710531F421E0BD
:10194000FC018081882339F005C00E94D10E21E07E
:10195000892B09F020E0822F089508950E94B60C8B
:10196000332312F48A1B9B0B0C94C70CA29FB0016B
:10197000B39FC001A39F700D811D1124911DB29FC3
:10198000700D811D1124911D08950E94B60CB7FFA2
:101990000895821B930B0895EE0FFF1F0590F4919D
:1019A000E02D0994CF93DF938230910510F482E00B
:1019B00090E0E0915A02F0915B0220E030E0A0E07C
:1019C000B0E0309739F14081518148175907B8F09C
:1019D0004817590771F482819381109729F0139663
:1019E0009C938E9312972CC090935B0280935A0223
:1019F00027C02115310531F04217530718F0A9010E
:101A0000DB0101C0EF019A01BD01DF010280F3811A
:101A1000E02DD7CF21153105F9F0281B390B2430E3
:101A2000310580F48A819B816115710521F0FB01EC
:101A30009383828304C090935B0280935A02FE01D9
:101A4000329644C0FE01E20FF31F8193919322501E
:101A50003109398328833AC02091580230915902C4
:101A6000232B41F42091020130910301309359025C
:101A70002093580220910001309101012115310578
:101A800041F42DB73EB74091040150910501241B4C
:101A9000350BE0915802F0915902E217F307A0F4D8
:101AA0002E1B3F0B2817390778F0AC014E5F5F4FB4
:101AB0002417350748F04E0F5F1F5093590240938B
:101AC00058028193919302C0E0E0F0E0CF01DF91F2
:101AD000CF910895CF93DF93009709F487C0FC015D
:101AE000329713821282C0915A02D0915B022097E2
:101AF00081F420813181280F391F80915802909103
:101B000059028217930779F5F0935902E09358022E
:101B10006DC0DE0120E030E0AE17BF0750F4129632
:101B20004D915C9113979D014115510509F1DA0121
:101B3000F3CFB383A28340815181840F951F8A170D
:101B40009B0771F48D919C911197840F951F0296BC
:101B50009183808312968D919C91139793838283B6
:101B60002115310529F4F0935B02E0935A023EC03F
:101B7000D9011396FC93EE9312974D915D91A40FAA
:101B8000B51FEA17FB0779F480819181840F951FB7
:101B90000296D90111969C938E938281938113961C
:101BA0009C938E931297E0E0F0E08A819B810097EE
:101BB00019F0FE01EC01F9CFCE010296288139819E
:101BC000820F931F2091580230915902281739072C
:101BD00069F4309729F410925B0210925A0202C005
:101BE00013821282D0935902C0935802DF91CF9191
:101BF0000895A0E0B0E0EFEFFDE00C94E50EEC01FD
:101C0000CB01209719F40E94D20CB8C0FE01E60F58
:101C1000F71F9E0122503109E217F30708F4ACC008
:101C2000D9010D911C91119706171707B8F00530CF
:101C3000110508F49FC0A8014450510946175707E1
:101C400008F498C002501109061B170B0193119359
:101C50006D937C93CF010E946A0D8CC05B01A01A2A
:101C6000B10A4E01800E911EA0915A02B0915B0202
:101C7000612C712C60E070E0109709F449C0A81540
:101C8000B905C9F5ED90FC901197670142E0C40ECB
:101C9000D11CCA14DB0478F147018A189B0864013F
:101CA00042E0C40ED11C1296BC9012971396AC91D0
:101CB000B5E0CB16D10440F0B282A383918280823A
:101CC000D9018D939C9309C00E5F1F4F0E0D1F1DF0
:101CD000F90111830083EB2DFA2F6115710531F0A5
:101CE000DB011396FC93EE93129744C0F0935B02D2
:101CF000E0935A023FC06D917C911197661677066A
:101D000008F43B01BD0112960D90BC91A02DB4CFFB
:101D1000609158027091590268157905E9F46816C6
:101D20007906D0F44091000150910101411551050F
:101D300041F44DB75EB76091040170910501461BF7
:101D4000570BE417F507C0F4F0935902E0935802DB
:101D5000F901918380830EC00E94D20C7C01009710
:101D600059F0A801BE010E94C80ECE010E946A0D62
:101D7000C70104C0CE0102C080E090E0CDB7DEB75D
:101D8000EEE00C94010F81E090E0F8940C94180FB1
:101D9000FB01DC0102C001900D9241505040D8F788
:101DA0000895FB01DC018D91019080190110D9F398
:101DB000990B0895FB01DC0101900D920020E1F7E1
:101DC00008952F923F924F925F926F927F928F92DF
:101DD0009F92AF92BF92CF92DF92EF92FF920F93BA
:101DE0001F93CF93DF93CDB7DEB7CA1BDB0B0FB6C4
:101DF000F894DEBF0FBECDBF09942A883988488881
:101E00005F846E847D848C849B84AA84B984C88416
:101E1000DF80EE80FD800C811B81AA81B981CE0F0D
:101E2000D11D0FB6F894DEBF0FBECDBFED010895F2
:041E3000F894FFCF54
:101E340000005C02800067726F656E007A776172E1
:101E44007400000000003704E20BE00BE00BE00B31
:101E5400E00BE00B0C032504000000003704E20B48
:101E6400DF06A106770628061F060C0325040000DA
:0E1E7400000080085308280830084308520870
:00000001FF
