:100000000C9429020C9451020C9451020C9451024C
:100010000C9451020C9451020C9451020C94510214
:100020000C9451020C9453020C9451020C94510202
:100030000C9451020C9451020C9451020C945102F4
:100040000C94740E0C9451020C9451020C945102B5
:100050000C9451020C9451020C9451020C945102D4
:100060000C94470D0C9451020000000000000000A9
:1000700030787830300030006C6C6C00000000008C
:100080006C6CFE6CFE6C6C00307CC0780CF8300040
:1000900000C6CC183066C600386C3876DCCC7600EA
:1000A0006060C00000000000183060606030180020
:1000B000603018181830600000663CFF3C66000095
:1000C000003030FC30300000000000000070306074
:1000D000000000FC000000000000000000303000C4
:1000E000060C183060C0800078CCDCFCECCC7800CA
:1000F00030F030303030FC0078CC0C3860CCFC0074
:1001000078CC0C380CCC78001C3C6CCCFE0C0C0071
:10011000FCC0F80C0CCC78003860C0F8CCCC78006F
:10012000FCCC0C183060600078CCCC78CCCC78005B
:1001300078CCCC7C0C1870000000303000303000DF
:100140000000303000703060183060C0603018003F
:100150000000FC00FC0000006030180C183060004B
:1001600078CC0C18300030007CC6DEDEDEC07800B3
:100170003078CCCCFCCCCC00FC66667C6666FC009F
:100180003C66C0C0C0663C00FC6C6666666CFC00E9
:10019000FE6268786862FE00FE6268786860F0005F
:1001A0003C66C0C0CE663E00CCCCCCFCCCCCCC00F7
:1001B00078303030303078001E0C0C0CCCCC78000D
:1001C000E6666C786C66E600F06060606266FE0071
:1001D000C6EEFED6C6C6C600C6E6F6DECEC6C6006B
:1001E000386CC6C6C66C3800FC66667C6060F00081
:1001F00078CCCCCCDC781C00FC66667C786CE600A5
:1002000078CCE0381CCC7800FCB43030303078004A
:10021000CCCCCCCCCCCCFC00CCCCCCCCCC78300076
:10022000C6C6C6D6FEEEC600C6C66C386CC6C600CC
:10023000CCCCCC7830307800FECC983062C6FE0052
:100240007860606060607800C06030180C06020062
:10025000781818181818780010386CC600000000BC
:1002600000000000000000FF303018000000000017
:100270000000780C7CCC7600E0607C666666BC0092
:10028000000078CCC0CC78001C0C0C7CCCCC760068
:10029000000078CCFCC07800386C60F06060F00042
:1002A000000076CCCC7C0CF8E0606C766666E600EC
:1002B0003000703030307800180078181818D87076
:1002C000E060666C786CE60070303030303078007A
:1002D0000000ECFED6C6C6000000F8CCCCCCCC00AA
:1002E000000078CCCCCC78000000DC66667C60F046
:1002F000000076CCCC7C0C1E0000D86C6C60F0004A
:1003000000007CC0780CF80010307C3030341800CD
:100310000000CCCCCCCC76000000CCCCCC7830002B
:100320000000C6C6D6FE6C000000C66C386CC60065
:100330000000CCCCCC7C0CF80000FC983064FC00B5
:100340001C3030E030301C00181818001818180045
:10035000E030301C3030E00076DC000000000000AF
:1003600010386CC6C6C6FE004128D441CF83008336
:100370003041ED846403128141E88385017941CBEA
:1003800085392C00340241F7812041EA8200004186
:10039000C0812641C1811141C582353E41C781BE20
:1003A00041B182001B41F281084126810141E08F69
:1003B0001F1A180A0F064587320A0702070500416F
:1003C000E18F0025270510093A784D05180D383AB8
:1003D0001F41B6840A82270041B78107413A8155FF
:1003E000413681E8412A82000082013F412B820090
:1003F000008200EF4111FCFC4129D4FFFF00000006
:1004000008000201000003040700000000000000D3
:10041000000102040810204080010204081020019D
:100420000204081020040404040404040402020268
:100430000202020303030303030000000025002857
:10044000002B0000000000240027002A0000DA0230
:10045000650C11241FBECFEFD8E0DEBFCDBF11E089
:10046000A0E0B1E0EEE2F7E202C005900D92A835FF
:10047000B107D9F722E0A8E5B1E001C01D92AD3681
:10048000B207E1F714E0C2E5D4E004C02297FE0110
:100490000E948610CE34D107C9F70E94DE020C9468
:1004A00095130C9400001F920F920FB60F92112417
:1004B0002F938F939F9380915801909159010196AA
:1004C000909359018093580180915801909159015E
:1004D0008115924068F080915A0190915B010196DC
:1004E00090935B0180935A01109259011092580128
:1004F0009F918F912F910F900FBE0F901F90189585
:10050000EF92FF920F931F93CF93DF938CE591E0CF
:100510000E9418068C018CE591E00E941406D82FE9
:10052000C92F8CE591E00E9414062D2F3C2F37FF38
:1005300002C02F5F3F4F35952795BC0197FF02C042
:100540006F5F7F4F75956795E12C58EFF52E40E072
:1005500050E08CE591E00E945D078CE591E00E94FF
:1005600018067C018CE591E00E941406EC018CE5F4
:1005700091E00E9418068701F7FE02C00F5F1F4F2F
:1005800015950795AC0197FF02C04F5F5F4F5595DA
:100590004795E12C98EFF92E9E0160E070E08CE524
:1005A00091E00E945D07DF91CF911F910F91FF9025
:1005B000EF9008958CE591E00C94C209CF93DF93FE
:1005C000CDB7DEB7C058D1090FB6F894DEBF0FBE65
:1005D000CDBF0E94090F8091B00085608093B0006C
:1005E000809170008160809370001092B2007894C6
:1005F0008CE591E00E94590B87B18C6087B94298D5
:10060000439A64E670E080E090E00E94E10E84EAA4
:1006100091E00E94290C62E570E084EA91E00E947A
:100620004D0C60E484EA91E00E94EA0B60E084EA09
:1006300091E00E94EA0B84EA91E00E94620C6FEF65
:100640007FEF8CE591E00E941C060E94800286E00C
:10065000682E81E0782ECE0101964C0146E050E0F4
:1006600062E570E084EA91E00E94400C0DE9E02E22
:1006700001E0F02E84EA91E00E94920B892B59F060
:1006800084EA91E00E949A0B97E18927895EF7013D
:1006900081937F01EFCF62E570E084EA91E00E94F0
:1006A0004D0C60E084EA91E00E94EA0B84EA91E05C
:1006B0000E94620C40909D0130909E0181EE840D5D
:1006C0008331A0F48CE591E00E94140697FD039617
:1006D0009595879595958795582E8CE591E00E9484
:1006E000180697FD019695958795B82E87E3840D9A
:1006F000863310F58CE591E00E9414067C018CE5B0
:1007000091E00E94140697FD0196AC01559547951E
:100710009701F7FE02C02D5F3F4F35952795359520
:100720002795542E520E8CE591E00E94180697FDF5
:10073000019695958795B82E81EE830D833110F53E
:100740008CE591E00E9418067C018CE591E00E9406
:10075000180697FD0196AC01559547959701F7FE50
:1007600002C02D5F3F4F3595279535952795B42EBF
:10077000B20E8CE591E00E94140697FD01969595C6
:100780008795582E87E3830D8633A0F48CE591E09E
:100790000E94180697FD03969595879595958795E0
:1007A000B82E8CE591E00E94140697FD0196959570
:1007B0008795582E87E8840D8331B0F487E8830D40
:1007C000833190F48CE591E00E94180697FD019624
:1007D00095958795B82E8CE591E00E94140697FDBB
:1007E000019695958795582E20915A0130915B017D
:1007F000AA24A394CC24CA94DC2CE12CF12C0AE08A
:1008000045E050E065E070E08CE591E00E943D0934
:10081000251002C01B1561F0412F50E0622D70E0E1
:100820000FEF1FEF23E030E08CE591E00E946808B5
:100830008CE591E00E9485099F938F931F923F92D0
:100840001F924F927F926F929F928F920E94B4104C
:10085000CC24C394EE24EA94FE2C00E010E0940132
:1008600042E050E064E670E08CE591E00E94FF0811
:100870000E9480024B2D50E0652D70E00FE110E0EA
:1008800022E030E08CE591E00E946808252C1B2DC9
:100890000FB6F894DEBF0FBECDBFE0CE2F923F92D1
:1008A0004F925F926F927F928F929F92AF92BF9280
:1008B000CF92DF92EF92FF920F931F93CF93DF932C
:1008C00000D01F92CDB7DEB79B838A83380188E0C2
:1008D000280250011124D501A859B0405D01BC2D5A
:1008E000BF77CB2EEA81FB8186819781F1E0FB17F0
:1008F00008F462C06B0128E0C20ED11C8C159D0566
:100900000CF46DC0AA81BB8118962D913C9119976A
:10091000FA0138962E173F070CF461C0AA81BB81FB
:10092000ED91FC9111978A01095F1F4F9B01295F8F
:100930003F4F0680F781E02DCD010995AA81BB814B
:10094000ED91FC9111970084F185E02DCD01099581
:100950008501085F1F4FF5015490FFEFAF1ABF0AE2
:1009600098E0892E912C20E8422EAA81BB81ED913E
:10097000FC911197842D85210284F385E02D882335
:1009800019F0B301CD0103C0B7018A819B8109959C
:100990004694B1E08B1A910841F7A016B106D9F63A
:1009A000AA81BB81ED91FC9111970484F585E02D1E
:1009B000CD010995C60175C0B8E0CB9E8001112418
:1009C0004B01800E911E881599054CF0040F151FE0
:1009D000EA81FB81208531852017310714F40196C7
:1009E00060C0AA81BB81ED91FC9111970150110962
:1009F0000680F781E02D940121503109CD01099540
:100A0000AA81BB81ED91FC9111970084F185E02DC5
:100A1000CD0109952501B8E04B0E511CF501D4908C
:100A2000FFEFAF1ABF0A2C2C08E010E080E8382E48
:100A3000832D8D212C2DA1F0AA81BB81ED91FC91FC
:100A400011970284F385E02DB301CD012983099527
:100A50002981215089F736940150110949F710C0B6
:100A6000AA81BB81ED91FC9111970284F385E02D61
:100A7000B701CD01298309952981215089F7EBCF51
:100A80002A9491F6A414B50409F0C8CFAA81BB81B9
:100A9000ED91FC9111970484F585E02DCD01099528
:100AA000C4010F900F900F90DF91CF911F910F9184
:100AB000FF90EF90DF90CF90BF90AF909F908F907E
:100AC0007F906F905F904F903F902F900895CF92BE
:100AD000EF92FF920F931F93DC01ED91FC9106843E
:100AE000F785E02D09951F910F91FF90EF90CF9022
:100AF0000895CF92EF92FF920F931F93CF93DF93BE
:100B0000EC01262F6A3081F48EAD9FAD9BAF8AAF8A
:100B10002CA92F778CAD9DAD38E0239F800D911DC2
:100B200011249DAF8CAF47C0862F8B7F893009F48D
:100B300042C06AAD7BAD203219F461157105D9F15F
:100B4000E881F981E8ACF9AC0EA91FA94CAD5DAD07
:100B50000088F189E02DCCA8CE0109959BAF8AAF22
:100B60002DA9222341F14CA94F77642F70E028EF83
:100B70002403A00111242E813F81240F351F281743
:100B80003907CCF48EAD9FAD9BAF8AAFCB0133E07C
:100B9000880F991F3A95E1F72CAD3DAD820F931F59
:100BA0009DAF8CAF28853985240F351F281739074D
:100BB00014F41DAE1CAE81E090E0DF91CF911F9147
:100BC0000F91FF90EF90CF900895FC011382128255
:100BD0008FE191E09183808315821482778366830D
:100BE00051874087178616861586148613861286C7
:100BF000178A168A158A148A138A128A118A108A09
:100C000010AA11AA12AA13AA81E084AB85AB17AA75
:100C100016AA8FEF9FEF91AF80AF17AE16AE15AE4D
:100C200014AE13AE12AE0895FC018681978108952B
:100C3000FC01808591850895AF92BF92CF92DF929B
:100C4000EF92FF920F931F93CF93DF93EC015B0121
:100C5000E881F98108851985015011092E813F81AC
:100C6000215031090680F781E02D40E050E060E03E
:100C700070E00995E881F9810084F185E02DCE01CD
:100C80000995AE81BF81288539850E9466106B0168
:100C90007C0143E0F694E794D794C7944A95D1F742
:100CA000E881F981C114D104E104F10409F444C0DC
:100CB0000284F385E02DB501CE010995E881F98123
:100CC0000284F385E02DB501CE010995E881F98113
:100CD0000284F385E02DB501CE010995E881F98103
:100CE0000284F385E02DB501CE010995E881F981F3
:100CF0000284F385E02DB501CE010995E881F981E3
:100D00000284F385E02DB501CE010995E881F981D2
:100D10000284F385E02DB501CE010995E881F981C2
:100D20000284F385E02DB501CE01099581E0C81A52
:100D3000D108E108F108B4CF0484F585E02DCE0197
:100D4000DF91CF911F910F91FF90EF90DF90CF90A7
:100D5000BF90AF900994EF92FF920F931F93CF93A0
:100D6000DF93EC0179018E819F816817790754F533
:100D700088859985481759072CF5E881F9810680FF
:100D8000F781E02D8A019B01CE010995E881F98167
:100D90000084F185E02DCE010995E881F981028476
:100DA000F385E02DB701CE010995E881F98104842E
:100DB000F585E02DCE01DF91CF911F910F91FF902E
:100DC000EF900994DF91CF911F910F91FF90EF90D9
:100DD00008958F929F92AF92BF92CF92DF92EF923F
:100DE000FF920F931F93CF93DF93EC0169014801AA
:100DF00057012E813F81621773071CF0B9016150C2
:100E0000710988859985481759071CF0AC01415034
:100E10005109FB01EC0DFD1DE217F3071CF0690100
:100E2000C61AD70A9A01280D391D281739071CF050
:100E30004C01841A950AE881F9818A01080D191D6F
:100E4000015011099B012C0D3D1D215031090680D7
:100E5000F781E02DCE010995E881F9810084F185C3
:100E6000E02DCE0109959401D6010E9466106B0118
:100E70007C01E881F981C114D104E104F10461F03D
:100E80000284F385E02DB501CE01099581E0C81AF1
:100E9000D108E108F108EDCF0484F585E02DCE01FD
:100EA000DF91CF911F910F91FF90EF90DF90CF9046
:100EB000BF90AF909F908F9009942F923F924F9246
:100EC0005F926F927F928F929F92AF92BF92CF92DA
:100ED000DF92EF92FF920F931F93CF93DF93CDB7E3
:100EE000DEB728970FB6F894DEBF0FBECDBF4C011A
:100EF0006B0158874F83590162177307A1F40417D8
:100F0000150744F4042715274027512758874F8396
:100F1000042715272F813885021B130B0F5F1F4FE6
:100F200021E030E015C04F81588540175107B9F4D2
:100F30002617370734F4A626B726CA24DB24AC24A8
:100F4000BD2495012C193D092F5F3F4F01E010E0B2
:100F50004F815885B601C4010E94E906A0C0FC017A
:100F6000268137816217730724F06901F1E0CF1AF7
:100F7000D108F401808591854F815885481759071C
:100F800024F0FC013197F887EF83A216B30624F012
:100F90005901F1E0AF1AB108081719071CF08C01CC
:100FA0000150110935016C187D0828012F81388501
:100FB000421A530A77FE08C07194619471084FEF8A
:100FC0005FEF5A83498304C081E090E09A8389836C
:100FD00057FE08C0519441945108EFEFFFEFFC8396
:100FE000EB8304C021E030E03C832B83A301440F5A
:100FF000551F5E834D831201220C331C97014F81D4
:101000005885B601C4010E94AB06461457041CF56E
:10101000810106191709CA14DB0409F440C017FD41
:101020000CC08F819885EB81FC818E0F9F1F988764
:101030008F832D813E81021B130B49815A81C40E7F
:10104000D51E020D131D97014F815885B601C401AD
:101050000E94AB06E0CFAD80BE80A418B5088F819A
:10106000988580179107D9F0B7FC06C089819A81CD
:10107000C80ED91EA218B308EF81F8852B813C81D8
:10108000E20FF31FF887EF834D815E81A40EB51E3A
:101090009701AF01B601C4010E94AB06E0CF2896CC
:1010A0000FB6F894DEBF0FBECDBFDF91CF911F9179
:1010B0000F91FF90EF90DF90CF90BF90AF909F90F7
:1010C0008F907F906F905F904F903F902F900895FA
:1010D0002F923F924F925F926F927F928F929F9248
:1010E000AF92BF92CF92DF92EF92FF920F931F9336
:1010F000CF93DF9300D000D000D0CDB7DEB75C0136
:101100001B012A013E832D8348016901D194C194BA
:10111000D108612C712C2D813E81261537050CF4E8
:1011200055C0A301440D551D74018A012D813E81D6
:10113000220D331D3A832983B1018D819E81681B65
:10114000790B7C836B83C5010E945D07A201461960
:1011500057098A0129813A816B817C81C5010E94EE
:101160005D07F301E20DF31DFC83EB83910126196A
:1011700037093A8329834D815E81440D551D8A01CB
:101180009F0169817A81C5010E945D07A2016D817D
:101190007E81461B570B8A012B813C8169817A81B4
:1011A000C5010E945D07C3010196C60CD71CC80E7D
:1011B000D91ED7FC09C0ED81FE813197FE83ED83F6
:1011C000CE1ADF0ACE1ADF0A3C01A5CF26960FB64B
:1011D000F894DEBF0FBECDBFDF91CF911F910F916D
:1011E000FF90EF90DF90CF90BF90AF909F908F9047
:1011F0007F906F905F904F903F902F9008954F9207
:101200005F926F927F928F929F92AF92BF92CF9296
:10121000DF92EF92FF920F931F93CF93DF935C01C6
:10122000CB014A0138012701DC2CE9012991222355
:1012300099F0D501ED91FC910684F785E02DCD2C38
:1012400072018301A401BC01C5010995F501268144
:1012500037812817390754F7DF91CF911F910F91EC
:10126000FF90EF90DF90CF90BF90AF909F908F90C6
:101270007F906F905F904F9008952F923F924F9282
:101280005F926F927F928F929F92AF92CF92DF92F6
:10129000EF92FF920F931F93CF93DF93CDB7DEB7FB
:1012A00061970FB6F894DEBF0FBECDBF4C013B0176
:1012B0002A01C90117017601CA2C402F50E0BE0156
:1012C0006F5F7F4F0E948F1081019E012F5F3F4F04
:1012D000A201B301C4010E94FF0861960FB6F89401
:1012E000DEBF0FBECDBFDF91CF911F910F91FF9059
:1012F000EF90DF90CF90AF909F908F907F906F9006
:101300005F904F903F902F900895FC0186859785C0
:1013100008955F9A08958EBD00000DB407FEFDCFBD
:101320008EB50895CF93DF931F92CDB7DEB7872F89
:101330002B9A2D989CB59F7B9CBD2D9A9CB5906453
:101340009CBD69830E948B092B9A2D989CB59F7B2D
:101350009CBD2D9A9CB590649CBD6981862F0F9091
:10136000DF91CF910C948B092CB5982F93702C7F23
:10137000922B9CBD9DB582FB882780F99E7F982B80
:101380009DBD0895CF93DF93EC0140EF50E060E402
:1013900071E00E94E50585E391E099838883DF9100
:1013A000CF910895862F5F982B982D989CB59F7BA1
:1013B0009CBD2D9A9CB590649CBD0E948B095F9A40
:1013C00008956CE20E94D2095F980895CF93DF934D
:1013D0001F92CDB7DEB7872F5F982B9A2D989CB5BB
:1013E0009F7B9CBD2D9A9CB590649CBD69830E9497
:1013F0008B092B9A2D989CB59F7B9CBD2D9A9CB5F3
:1014000090649CBD6981862F0E948B095F9A0F9022
:10141000DF91CF910895AF92BF92CF92DF92EF927A
:10142000FF920F931F93CF93DF93EC017B016A012F
:1014300059016AE20E94D209B701CE010E94E60971
:10144000B501CE010E94E6096BE2CE010E94D209ED
:10145000B601CE010E94E609B801CE01DF91CF911D
:101460001F910F91FF90EF90DF90CF90BF90AF90C2
:101470000C94E609862F5F982B9A2D989CB59F7B3C
:101480009CBD2D9A9CB590649CBD0E948B095F9A6F
:1014900008950F931F93CF93DF93EC01693071058B
:1014A00019F06A35710571F48AE590E09D838C83AB
:1014B00080EF90E09F838E8380E491E09987888716
:1014C00018E434C06231710519F0643B710571F4A0
:1014D00084EB90E09D838C8380E491E09F838E83F6
:1014E00080EF90E09987888718E320C06B31710501
:1014F00021F07E7F6E30710571F48EE091E09D8366
:101500008C8380EF90E09F838E8380E491E09987C5
:10151000888718E80BC01D821C8280E491E09F83BD
:101520008E8380EF90E09987888718EE66E3CE017E
:101530000E94D209612FCE010E943A0AE881F98106
:1015400008851985015011092E813F8121503109EB
:101550000680F781E02D40E050E060E070E0CE01D1
:101560000995DF91CF911F910F910895CF92DF924E
:10157000EF92FF920F931F93CF93DF938C015F9AAB
:10158000289862E370E080E090E00E94E10E289AE3
:1015900068E770E080E090E00E94E10EE8E6F3E0AA
:1015A000EF01219684918F3FA9F1982F907C90387C
:1015B000B1F0903C39F1903411F0FE01F1CF8F730E
:1015C000C82E7F01D82EFFEFEF1AFF0ADD20B9F0F9
:1015D000F7016491C8010E94D209DA94F4CF8F73A5
:1015E000C82E7F01D82EFFEFEF1AFF0ADD2039F059
:1015F000F7016491C8010E943A0ADA94F4CFCC0D45
:10160000D11DDBCF682F6F7370E080E090E00E9407
:10161000E10ED3CF60E070E0C801DF91CF911F9160
:101620000F91FF90EF90DF90CF900C941C061F93CA
:10163000CF93DF93EC01162F61E088E00E94CC0F7E
:10164000289861E089E00E94CC0F61E087E00E9469
:10165000CC0F61E08DE00E94CC0F61E08BE00E9436
:10166000CC0F60E08CE00E94CC0F29985F9A61E07B
:1016700086E00E94CC0F5E9AFE01E05CFF4F108373
:101680009CB5937F9CBD9CB59F7D9CBD0E945C0BCF
:1016900085E00E94B409CE010E94B60A812F0E9403
:1016A000B4096FE770E089E0DF91CF911F910C944E
:1016B000440F60E00C94170BCF93CFB7F894809150
:1016C000A301811127C0EFE2F4E08491EBE1F4E0A3
:1016D0009491E82FF0E0EE0FFF1FED5BFB4FA5911B
:1016E000B4918C91892321F461E08AE00E94051075
:1016F00061E08AE00E94CC0F8CB580618CBD8CB516
:1017000080648CBD61E08DE00E94CC0F61E08BE0D5
:101710000E94CC0F8091A3018F5F8093A301CFBF64
:10172000CF9108958091D40190E02091D501821B42
:10173000910908952091D5018091D401281750F482
:10174000E22FF0E0EA52FE4F808190E02F5F20937D
:10175000D50108958FEF9FEF0895E091D501809115
:10176000D401E81730F4F0E0EA52FE4F808190E0B7
:1017700008958FEF9FEF08950895CF92DF92EF9233
:10178000FF920F931F93CF93DF937C01CB018A01CC
:101790002091B001222389F0EB016B01C40ED51E0C
:1017A000CC15DD0569F06991D701ED91FC910190AF
:1017B000F081E02DC7010995F3CF642F0E941E0D23
:1017C000C801DF91CF911F910F91FF90EF90DF90B3
:1017D000CF900895CF93DF931F92CDB7DEB7698383
:1017E0002091B0012223D1F02091B101203240F0AC
:1017F00021E030E0FC013383228380E090E015C0DB
:101800008091B201E82FF0E0ED54FE4F9981908372
:101810008F5F8093B2018093B10105C061E0CE017A
:1018200001960E941E0D81E090E00F90DF91CF9114
:101830000895FC011382128248EE53E060E070E0EC
:1018400044835583668377838BE491E0918380831F
:1018500008951092D5011092D4011092B201109205
:10186000B1010C94690C862F413208F040E266ED1C
:1018700071E00E94870C1092D5018093D4010895E5
:1018800021E00C94330C81E08093B0016093D3018C
:101890001092B2011092B10108950C94430C0F9371
:1018A000062F21E04091B10163EB71E08091D301FB
:1018B0000E94CB0C1092B2011092B1011092B001B3
:1018C0000F91089561E00C944F0C84EA91E00C9420
:1018D000190C1092630281E0809361021092600201
:1018E00061E082E10E94051061E083E10E94051041
:1018F000E9EBF0E080818E7F808380818D7F808323
:1019000088E48093B80085E48093BC000895413258
:1019100008F03FC0909163029111FCCF91E0909349
:101920006302209361022FEF2093F60110923B0295
:10193000240F20933A029093620290916202880FE2
:10194000892B8093620280916002813041F4109271
:101950006002809162028093BB0085EC01C085EE3D
:101960008093BC00809163028130E1F380913B025F
:10197000841710F440913B022CE332E0FB01D901C3
:101980008A2F821B841718F48D918193F9CF842FAD
:10199000089580E008950F93413208F046C0909179
:1019A00063029111FCCF92E0909363020093610275
:1019B0009FEF9093F60110923B0240933A02FB0195
:1019C0006CE372E0DB019A2F961B941718F4919147
:1019D0009D93F9CF1092620290916202880F892B39
:1019E0008093620280916002813041F41092600223
:1019F000809162028093BB0085EC01C085EE8093EC
:101A0000BC00222321F0809163028230E1F38091B7
:101A1000F6018F3F61F08091F601803251F08091A4
:101A2000F601803341F483E007C081E005C080E027
:101A300003C082E001C084E00F910895613298F400
:101A400020916302243089F460931802FC018AE13A
:101A500092E0DC012A2F281B261718F421912D93E0
:101A6000F9CF80E0089581E0089582E0089585ED42
:101A70008093BC008091BC0084FDFCCF1092630277
:101A8000089585EC8093BC001092630208951F9224
:101A90000F920FB60F9211242F933F934F935F93A2
:101AA0006F937F938F939F93AF93BF93EF93FF9326
:101AB0008091B900887F803609F49CC068F588322F
:101AC00009F45BC090F4803109F454C038F48823E1
:101AD00009F4F5C0883009F44DC0F5C0883109F427
:101AE0004CC0803209F45DC0EEC0803409F468C097
:101AF00048F4803309F455C0883309F0E4C080937A
:101B0000F601A8C0803509F44FC0883509F45DC0DE
:101B1000883409F0D8C0D5C0883909F4C6C0A8F403
:101B2000883709F467C038F4883609F463C0803711
:101B300009F460C0C8C0883809F4B7C0803909F416
:101B40005FC0803809F0BFC05BC0803B09F485C02E
:101B500038F4803A09F466C0883A09F47EC0B3C00C
:101B6000803C09F4A6C0883C09F4A3C0883B09F472
:101B700089C0A9C08091620210C090913B028091FF
:101B80003A02981770F5E0913B0281E08E0F809346
:101B90003B02F0E0E45CFD4F80818093BB0085EC6C
:101BA00085C08093F6018DC0E0913B0281E08E0FED
:101BB00080933B028091BB00F0E0E45CFD4F8083AA
:101BC00090913B0280913A026DC0E0913B0281E02E
:101BD0008E0F80933B028091BB00F0E0E45CFD4FF0
:101BE00080838091610281116CC081E080936002EA
:101BF00084EA60C083E0809363021092F701CFCF44
:101C00008091F701803208F050C0E091F70181E047
:101C10008E0F8093F7018091BB00F0E0E850FE4FFB
:101C20008083BDCF8091F701803230F4E091F701DD
:101C3000F0E0E850FE4F10820E94370D6091F701EE
:101C400070E0E0915C02F0915D0288EF91E009950F
:101C50001092F7010E94410D36C084E08093630228
:101C60001092190210921802E0915E02F0915F0248
:101C7000099580911802811105C081E080931802B6
:101C800010921A02E091190281E08E0F80931902DE
:101C9000F0E0E65EFD4F80818093BB0090911902D9
:101CA00080911802981708F47ACF85E88093BC00D9
:101CB0000AC085EC8093BC001092630204C01092AD
:101CC000F6010E94370DFF91EF91BF91AF919F9167
:101CD0008F917F916F915F914F913F912F910F90D5
:101CE0000FBE0F901F9018951F920F920FB60F9274
:101CF00011242F933F938F939F93AF93BF93809122
:101D0000650290916602A0916702B09168023091DD
:101D1000640223E0230F2D3720F40196A11DB11D8D
:101D200005C026E8230F0296A11DB11D2093640271
:101D30008093650290936602A0936702B093680255
:101D40008091690290916A02A0916B02B0916C023D
:101D50000196A11DB11D8093690290936A02A09320
:101D60006B02B0936C02BF91AF919F918F913F91A5
:101D70002F910F900FBE0F901F9018953FB7F894BA
:101D80008091690290916A02A0916B02B0916C02FD
:101D900026B5A89B05C02F3F19F00196A11DB11DC6
:101DA0003FBF6627782F892F9A2F620F711D811DE3
:101DB000911D42E0660F771F881F991F4A95D1F742
:101DC0000895CF92DF92EF92FF92CF93DF936B0152
:101DD0007C010E94BE0EEB01C114D104E104F104A8
:101DE00089F00E9465100E94BE0E6C1B7D0B683E40
:101DF000734090F381E0C81AD108E108F108C85196
:101E0000DC4FEACFDF91CF91FF90EF90DF90CF9042
:101E10000895789484B5826084BD84B5816084BD62
:101E200085B5826085BD85B5816085BDEEE6F0E053
:101E3000808181608083E1E8F0E0108280818260AF
:101E40008083808181608083E0E8F0E08081816030
:101E50008083E1EBF0E0808184608083E0EBF0E060
:101E6000808181608083EAE7F0E080818460808304
:101E700080818260808380818160808380818068AE
:101E800080831092C10008951F93CF93DF93182F82
:101E9000EB0161E00E94CC0F209711F460E004C0D8
:101EA000CF3FD10539F461E0812FDF91CF911F91B0
:101EB0000C940510E12FF0E0E350FC4FE491E33087
:101EC000F9F048F4E130B9F0E230A1F584B5806270
:101ED00084BDC8BD34C0E730E9F0E83019F1E43022
:101EE00049F580918000806280938000D0938B00C0
:101EF000C0938A0024C084B5806884BDC7BD1FC05C
:101F000080918000806880938000D0938900C09386
:101F1000880015C08091B00080688093B000C093A5
:101F2000B3000DC08091B00080628093B000C09378
:101F3000B40005C0C038D1050CF0B5CFAFCFDF91EC
:101F4000CF911F910895833081F028F4813099F06A
:101F50008230A1F008958730A9F08830B9F084303C
:101F6000D1F4809180008F7D03C0809180008F77B5
:101F700080938000089584B58F7702C084B58F7DEB
:101F800084BD08958091B0008F7703C08091B00028
:101F90008F7D8093B0000895CF93DF9390E0FC0194
:101FA000EF5EFB4F2491FC01EB5DFB4F8491882396
:101FB00049F190E0880F991FFC01ED5BFB4FA59163
:101FC000B491875C9B4FFC01C591D4919FB761117F
:101FD00008C0F8948C91209582238C938881822369
:101FE0000AC0623051F4F8948C91322F30958323DB
:101FF0008C938881822B888304C0F8948C91822BE7
:102000008C939FBFDF91CF9108950F931F93CF9330
:10201000DF931F92CDB7DEB7282F30E0F901E350F0
:10202000FC4F8491F901EF5EFB4F1491F901EB5DD8
:10203000FB4F04910023C9F0882321F069830E949B
:10204000A30F6981E02FF0E0EE0FFF1FE75CFB4F6D
:10205000A591B4919FB7F8948C91611103C010952C
:10206000812301C0812B8C939FBF0F90DF91CF9173
:102070001F910F9108950E948A10CF92DF92EF92E4
:10208000FF920F931F93CF93DF936C017A01EB01C3
:10209000E60EF71E00E010E0CE15DF0561F0699155
:1020A000D601ED91FC910190F081E02DC6010995DA
:1020B000080F191FF1CFC801DF91CF911F910F9128
:1020C000FF90EF90DF90CF90089508950E946E10DA
:1020D000332312F48A1B9B0B0C947F10A29FB00138
:1020E000B39FC001A39F700D811D1124911DB29F4C
:1020F000700D811D1124911D08950E946E10B7FF6F
:102100000895821B930B0895EE0FFF1F0590F49125
:10211000E02D099481E090E0F8940C9495134532F9
:10212000510520F4423010F00C949A10FB011082FB
:10213000CB010895BB27FB015527AA27880F991FBC
:10214000AA1FA41710F0A41B83955051B9F7A05DE6
:10215000AA3308F0A95DA193009779F7B111B19363
:102160001192CB010C94BE12AEE0B0E0EAEBF0E1CC
:102170000C946C130D891E8986E08C831A83098365
:102180008FEF9FE79E838D83AE01475E5F4F6F8920
:10219000788DCE0101960E94D610EF81F885E00F70
:1021A000F11F10822E96E4E00C948813ACE0B0E0AE
:1021B000ECEDF0E10C945E137C016B018A01FC01F3
:1021C00017821682838181FFBDC1CE0101964C0129
:1021D000F7019381F60193FD859193FF81916F0142
:1021E000882309F4ABC1853239F493FD859193FFBF
:1021F00081916F01853229F4B70190E00E94CE12DF
:10220000E7CF512C312C20E02032A0F48B3269F042
:1022100030F4803259F0833269F420612CC08D3261
:1022200039F0803339F4216026C02260246023C055
:10223000286021C027FD27C030ED380F3A3078F4F0
:1022400026FF06C0FAE05F9E300D1124532E13C006
:102250008AE0389E300D1124332E20620CC08E325D
:1022600021F426FD6BC1206406C08C3611F4206871
:1022700002C0883641F4F60193FD859193FF819168
:102280006F018111C1CF982F9F7D9554933028F411
:102290000C5F1F4FFFE3F9830DC0833631F08337A6
:1022A00071F0833509F05BC022C0F8018081898319
:1022B0000E5F1F4F44244394512C540115C0380124
:1022C000F2E06F0E711CF801A080B18026FF03C000
:1022D000652D70E002C06FEF7FEFC5012C870E9473
:1022E000B3122C0183012C852F77222E17C03801C1
:1022F000F2E06F0E711CF801A080B18026FF03C0D0
:10230000652D70E002C06FEF7FEFC5012C870E9442
:10231000A8122C012C852068222E830123FC1BC0CF
:10232000832D90E048165906B0F4B70180E290E0A2
:102330000E94CE123A94F4CFF50127FC859127FE36
:1023400081915F01B70190E00E94CE1231103A9462
:10235000F1E04F1A51084114510471F7E5C0843679
:1023600011F0893639F5F80127FF07C060817181C6
:10237000828193810C5F1F4F08C060817181882723
:1023800077FD8095982F0E5F1F4F2F76B22E97FF07
:1023900009C090958095709561957F4F8F4F9F4FA5
:1023A0002068B22E2AE030E0A4010E940013A82E7B
:1023B000A81844C0853729F42F7EB22E2AE030E0D9
:1023C00025C0F22FF97FBF2E8F36C1F018F4883563
:1023D00079F0B4C0803719F0883721F0AFC02F2FC3
:1023E0002061B22EB4FE0DC08B2D8460B82E09C0C2
:1023F00024FF0AC09F2F9660B92E06C028E030E067
:1024000005C020E130E002C020E132E0F801B7FE73
:1024100007C060817181828193810C5F1F4F06C06C
:102420006081718180E090E00E5F1F4FA4010E94E7
:102430000013A82EA818FB2DFF77BF2EB6FE0BC0E9
:102440002B2D2E7FA51450F4B4FE0AC0B2FC08C098
:102450002B2D2E7E05C07A2C2B2D03C07A2C01C08B
:10246000752C24FF0DC0FE01EA0DF11D8081803323
:1024700011F4297E09C022FF06C07394739404C02E
:10248000822F867809F0739423FD13C020FF06C0C5
:102490005A2C731418F4530C5718732C731468F4D3
:1024A000B70180E290E02C870E94CE1273942C85B5
:1024B000F5CF731410F4371801C0312C24FF12C06B
:1024C000B70180E390E02C870E94CE122C8522FF7A
:1024D00017C021FF03C088E590E002C088E790E0C4
:1024E000B7010CC0822F867859F021FD02C080E22E
:1024F00001C08BE227FD8DE2B70190E00E94CE1271
:10250000A51438F4B70180E390E00E94CE125A94EB
:10251000F7CFAA94F401EA0DF11D8081B70190E094
:102520000E94CE12A110F5CF332009F451CEB7018D
:1025300080E290E00E94CE123A94F6CFF7018681B5
:10254000978102C08FEF9FEF2C96E2E10C947A13F3
:10255000FC010590615070400110D8F7809590956E
:102560008E0F9F1F0895FC01615070400190011073
:10257000D8F7809590958E0F9F1F0895DC01FC0180
:10258000672F71917723E1F7329704C07C916D93A7
:1025900070836291AE17BF07C8F308950F931F931E
:1025A000CF93DF93182F092FEB018B8181FD03C09F
:1025B0008FEF9FEF20C082FF10C04E815F812C8182
:1025C0003D81421753077CF4E881F9819F012F5F19
:1025D0003F4F39832883108306C0E885F985812F12
:1025E0000995892B29F72E813F812F5F3F4F3F832C
:1025F0002E83812F902FDF91CF911F910F910895FE
:10260000FA01AA27283051F1203181F1E8946F9323
:102610006E7F6E5F7F4F8F4F9F4FAF4FB1E03ED0C9
:10262000B4E03CD0670F781F891F9A1FA11D680F67
:10263000791F8A1F911DA11D6A0F711D811D911D9A
:10264000A11D20D009F468943F912AE0269F11240F
:102650003019305D3193DEF6CF010895462F477073
:10266000405D4193B3E00FD0C9F7F6CF462F4F70CE
:10267000405D4A3318F0495D31FD4052419302D02C
:10268000A9F7EACFB4E0A6959795879577956795D2
:10269000BA95C9F700976105710508959B01AC01D2
:1026A0000A2E06945795479537952795BA95C9F7F9
:1026B000620F731F841F951FA01D08952F923F92D4
:1026C0004F925F926F927F928F929F92AF92BF9242
:1026D000CF92DF92EF92FF920F931F93CF93DF93EE
:1026E000CDB7DEB7CA1BDB0B0FB6F894DEBF0FBE4B
:1026F000CDBF09942A88398848885F846E847D8498
:102700008C849B84AA84B984C884DF80EE80FD8099
:102710000C811B81AA81B981CE0FD11D0FB6F8940F
:0E272000DEBF0FBECDBFED010895F894FFCFD0
:10272E0000006D028000583A2530336920593A2551
:10273E00303369205A3A25303369000000000079A1
:10274E00053D103B103B103B103B103B104E0467F9
:10275E00050000000079053D10490A0B0AE10992B7
:10276E000989094E04670500000000EA0BBD0B92B3
:08277E000B9A0BAD0BBC0B0024
:00000001FF
