:100000000C9437020C945F020C945F020C945F0214
:100010000C945F020C945F020C945F020C945F02DC
:100020000C945F020C945F020C945F020C945F02CC
:100030000C945F020C945F020C945F020C945F02BC
:100040000C9440230C945F020C9440260C9472266E
:100050000C945F020C945F020C945F020C945F029C
:100060000C9413220C945F020000000000000000BA
:1000700030787830300030006C6C6C00000000008C
:100080006C6CFE6CFE6C6C00307CC0780CF8300040
:1000900000C6CC183066C600386C3876DCCC7600EA
:1000A0006060C00000000000183060606030180020
:1000B000603018181830600000663CFF3C66000095
:1000C000003030FC30300000000000000070306074
:1000D000000000FC000000000000000000303000C4
:1000E000060C183060C0800078CCDCFCECCC7800CA
:1000F00030F030303030FC0078CC0C3860CCFC0074
:1001000078CC0C380CCC78001C3C6CCCFE0C0C0071
:10011000FCC0F80C0CCC78003860C0F8CCCC78006F
:10012000FCCC0C183060600078CCCC78CCCC78005B
:1001300078CCCC7C0C1870000000303000303000DF
:100140000000303000703060183060C0603018003F
:100150000000FC00FC0000006030180C183060004B
:1001600078CC0C18300030007CC6DEDEDEC07800B3
:100170003078CCCCFCCCCC00FC66667C6666FC009F
:100180003C66C0C0C0663C00FC6C6666666CFC00E9
:10019000FE6268786862FE00FE6268786860F0005F
:1001A0003C66C0C0CE663E00CCCCCCFCCCCCCC00F7
:1001B00078303030303078001E0C0C0CCCCC78000D
:1001C000E6666C786C66E600F06060606266FE0071
:1001D000C6EEFED6C6C6C600C6E6F6DECEC6C6006B
:1001E000386CC6C6C66C3800FC66667C6060F00081
:1001F00078CCCCCCDC781C00FC66667C786CE600A5
:1002000078CCE0381CCC7800FCB43030303078004A
:10021000CCCCCCCCCCCCFC00CCCCCCCCCC78300076
:10022000C6C6C6D6FEEEC600C6C66C386CC6C600CC
:10023000CCCCCC7830307800FECC983062C6FE0052
:100240007860606060607800C06030180C06020062
:10025000781818181818780010386CC600000000BC
:1002600000000000000000FF303018000000000017
:100270000000780C7CCC7600E0607C666666BC0092
:10028000000078CCC0CC78001C0C0C7CCCCC760068
:10029000000078CCFCC07800386C60F06060F00042
:1002A000000076CCCC7C0CF8E0606C766666E600EC
:1002B0003000703030307800180078181818D87076
:1002C000E060666C786CE60070303030303078007A
:1002D0000000ECFED6C6C6000000F8CCCCCCCC00AA
:1002E000000078CCCCCC78000000DC66667C60F046
:1002F000000076CCCC7C0C1E0000D86C6C60F0004A
:1003000000007CC0780CF80010307C3030341800CD
:100310000000CCCCCCCC76000000CCCCCC7830002B
:100320000000C6C6D6FE6C000000C66C386CC60065
:100330000000CCCCCC7C0CF80000FC983064FC00B5
:100340001C3030E030301C00181818001818180045
:10035000E030301C3030E00076DC000000000000AF
:1003600010386CC6C6C6FE0043616C696272617467
:10037000696F6E0043616C6962726174696F6E00CF
:100380004128D441CF8300833041ED84640312813E
:1003900041E88385017941CB85392C00340241F74E
:1003A000812041EA82000041C0812641C181114182
:1003B000C582353E41C781BE41B182001B41F281F9
:1003C000084126810141E08F1F1A180A0F06458750
:1003D000320A070207050041E18F002527051009B1
:1003E0003A784D05180D383A1F41B6840A82270025
:1003F00041B78107413A8155413681E8412A82005F
:100400000082013F412B8200008200EF4111FCFC81
:100410004129D4FFFF00000008000201000003048E
:100420000700000000000000000102040810204046
:1004300080010204081020010204081020040404B2
:10044000040404040402020202020203030303037D
:100450000300000000250028002B000000000024FD
:100460000027002A00003A06312198268F06112421
:100470001FBECFEFD8E0DEBFCDBF11E0A0E0B1E0FE
:10048000EAEFF9E502C005900D92A43EB107D9F755
:1004900023E0A4EEB1E001C01D92A93DB207E1F74F
:1004A00014E0CCE6D4E004C02297FE010E941D2A8D
:1004B000C636D107C9F70E945A070C94F02C0C9449
:1004C0000000EF92FF920F931F9380E2E82E83E0EB
:1004D000F82E00E210E020E431E040EA50E060E075
:1004E00070E086E292E00E94AE111F910F91FF90A2
:1004F000EF900895EF92FF920F931F93E12C28EF56
:10050000F22E00E810E09C0140EA50E0BC0186E2D7
:1005100092E00E9422121F910F91FF90EF90089598
:10052000EF92FF920F931F93BC01605E7F4FEE240A
:10053000EA94FE2C00E810E09B0140EA50E086E2DD
:1005400092E00E9422121F910F91FF90EF90089568
:10055000EF92FF920F931F939C01205F3F4FE12C7E
:1005600048ECF42E00E810E040EA50E0BC0186E2DE
:1005700092E00E9422121F910F91FF90EF90089538
:10058000EF92FF920F931F939C01205E3F4FBC019F
:10059000605F7F4FEE24EA94FE2C00EA10E040E812
:1005A00050E086E292E00E9422121F910F91FF908C
:1005B000EF9008958091F201811120C020910B01EC
:1005C00030E040E050E060E070E0CB010E9427277F
:1005D0006F5F6093F3018091F2018F5F8093F2016E
:1005E000613019F46093F00103C082E08093F00160
:1005F00080E491E09093EE018093ED018091ED0114
:100600009091EE01803A910590F58091F20182304F
:1006100070F523E030E040E050E060E070E0CB01B6
:100620000E9427276F5F6093F101613001F52091EF
:100630000B0130E040E050E060E070E0CB010E9450
:1006400027276F5F6093F3018091F2018F5F8093A2
:10065000F201613019F46093EF0103C082E08093EE
:10066000EF0180E491E09093EC018093EB01089519
:10067000AF92CF92DF92EF92FF920F931F938091F0
:10068000F201882309F479C08091ED019091EE0187
:100690009093EA018093E9018091EB019091EC0144
:1006A0009093E8018093E70184E192E00E947D0845
:1006B0008091ED019091EE01809609F04CC020915F
:1006C000E40180910B0290910C02222311F001961B
:1006D00001C0029690930C0280930B02EE24EA94E0
:1006E000FE2C04E110E024E130E042ED50E069E648
:1006F00070E086E292E00E94AE1120910B023091F0
:100700000C0272E0A72ECC24CA94DC2CE12CF12C34
:100710000AE042ED50E069E670E086E292E00E9475
:10072000C5188091F20181508093F201813079F4F3
:100730008091EB019091EC019093EE018093ED019B
:100740008091EF018093F0011092EF0104C08111BC
:1007500002C01092F0018091ED019091EE0101979D
:100760009093EE018093ED018091EB019091EC016B
:1007700001979093EC018093EB011F910F91FF90F3
:10078000EF90DF90CF90AF900895EF92FF920F938C
:100790001F9320E030E040E751E46091190270912E
:1007A0001A0280911B0290911C020E9421280E9433
:1007B0008A28E12CF12C0FE010E02FE030E0AB01B3
:1007C00060E270E086E292E00E94AE111F910F910C
:1007D000FF90EF9008958F929F92AF92BF92CF9229
:1007E000DF92EF92FF920F931F938091ED01909112
:1007F000EE012091E9013091EA0182179307E1F0BF
:100800002091F001223041F40E947A028091E901A6
:100810009091EA010E9490028091F001813061F490
:100820008091ED019091EE010E94A8028091E90172
:100830009091EA010E94C0028091F201823039F564
:100840008091EB019091EC012091E7013091E8015A
:1008500082179307E1F02091EF01223041F40E94CA
:100860007A028091E7019091E8010E9490028091C4
:10087000EF01813061F48091EB019091EC010E94D5
:10088000A8028091E7019091E8010E94C002809146
:100890002502882309F4C8C0C0901502D090160222
:1008A000E0901702F090180220E030E0A901C701A3
:1008B000B6010E9486281816F4F120E030E040E7E7
:1008C00051E46091190270911A0280911B0290917B
:1008D0001C020E9421280E948A28E12CF12C0FE0A2
:1008E00010E02FE030E0AB0160E270E086E292E0E1
:1008F0000E94AE11C0901902D0901A02E0901B0223
:10090000F0901C02A701960160911D0270911E02D9
:1009100080911F02909120020E94212820E030E067
:1009200040E85FE30E9422280E948A284B015C0174
:10093000C701B6016AC020E030E0A901C701B601D5
:100940000E946D29181684F020E030E040E253E464
:100950006091190270911A0280911B0290911C0201
:100960000E948628811160C020E030E040E751E419
:100970006091190270911A0280911B0290911C02E1
:100980000E9421280E948A28E12CF12C0FE010E01F
:100990002FE030E0AB0160E270E086E292E00E947E
:1009A000AE1120E030E040E751E460911D0270910B
:1009B0001E0280911F02909120020E9421286B014B
:1009C0007C0120E030E040E751E460911902709131
:1009D0001A0280911B0290911C020E942128A701FB
:1009E00096010E94212820E030E040E85FE30E9469
:1009F00022280E948A284B015C0120E030E040E878
:100A00005FE3C701B6010E9421280E948A28EE24D4
:100A1000EA94FE2C84012FE030E0AB0160E270E04C
:100A200086E292E00E94AE118FE39FE10197F1F719
:100A300000C000001F910F91FF90EF90DF90CF90CA
:100A4000BF90AF909F908F900895CF92DF92EF92DA
:100A5000FF921F93CF93DF931091F001123009F0B2
:100A60006EC0C091ED01D091EE01CF32D10548F0BA
:100A70008091E401882309F44FC081E0809325022E
:100A80004BC0C0901902D0901A02E0901B02F09067
:100A90001C0220E030E042EF52E4C701B6010E94A0
:100AA0006D2918161CF520E030E041E053E4C70141
:100AB000B6010E94862887FF19C010921502109275
:100AC000160210921702109218021092250280E06E
:100AD00090E0A0E0B3E48093190290931A02A093EF
:100AE0001B02B0931C0281E08093E40120E030E01F
:100AF00040E053E46091190270911A0280911B0248
:100B000090911C020E946D2918161CF481E08093BC
:100B1000E501A19708F0ACCF20E030E040E253E4DB
:100B20006091190270911A0280911B0290911C022F
:100B30000E946D2918166CF5109225022AC01130FA
:100B400041F5C091ED01D091EE01CF32D10508F50C
:100B5000F0900A016F2D70E080E090E00E94BD28C7
:100B60009B01AC016091190270911A0280911B02E5
:100B700090911C020E946D29181614F41093E5013F
:100B80006F9718F4F394F39402C0FA94FA94F092E5
:100B90000A0180910A01803819F480EA80930A01E1
:100BA000DF91CF911F91FF90EF90DF90CF9008954C
:100BB000CF93DF93EC01FB01828193819B838A8336
:100BC0008BE991E099838883848195819D838C83CF
:100BD000868197819F838E83808591859987888779
:100BE000828593859B878A87848595859D878C8759
:100BF000868597859F878E8780899189998B888B39
:100C0000828993899B8B8A8B848995899D8B8C8B18
:100C1000868997899F8B8E8B8CE17896DE0158961A
:100C200001900D928A95E1F7FB0184A98CAB85A90F
:100C30008DAB86A997A99FAB8EAB80AD91AD99AFD7
:100C400088AF82AD93AD9BAF8AAF84AD95AD9DAFBC
:100C50008CAF86AD97AD9FAF8EAF81EB91E099835E
:100C60008883E05CFF4F8081C05CDF4F8883DF9129
:100C7000CF91089586E292E00E94DD1C1092150249
:100C800010921602109217021092180280E090E063
:100C9000A0E2B3E48093190290931A02A0931B027E
:100CA000B0931C028DEC9CECACE4BDE3809321027C
:100CB00090932202A0932302B09324021092250263
:100CC00081E48093F40182E48093F50183E48093CE
:100CD000F60166E871E087EF91E00E94B12766E8CF
:100CE00071E08DEF91E00E94B12766E871E083E04A
:100CF00092E00E94B1271092090210920A0281E04C
:100D000080930D0280930E0210920F021092100237
:100D1000109211021092120210921302089583E0B1
:100D200092E00E9443278DEF91E00E94432787EFD6
:100D300091E00C944327AF92CF92DF92EF92FF9213
:100D40000F931F93CF93DF936FEF7FEF86E292E0D5
:100D50000E94E110A2E0CA2EEE24EA94FE2C00E0EC
:100D600010E024E231E042ED50E06AE070E086E21B
:100D700092E00E94D71720910B0230910C02C2E042
:100D8000AC2ECC24CA94DC2CE12CF12C0AE042EDF0
:100D900050E069E670E086E292E00E94C5180E9489
:100DA000610287B18C6087B94298439A64E670E02B
:100DB00080E090E00E94AD238EE692E00E94F52054
:100DC00062E570E08EE692E00E94192160E48EE612
:100DD00092E00E94B62060E08EE692E00E94B6208B
:100DE0008EE692E00E942E210E94C50317E101E0E9
:100DF0008091E6018823E1F146E050E062E570E091
:100E00008EE692E00E940C21C7E6D2E08EE692E0E8
:100E10000E945E20892B41F08EE692E00E946620BF
:100E20008127895E8993F2CF62E570E08EE692E0D9
:100E30000E94192160E08EE692E00E94B6208EE6C4
:100E400092E00E942E2180916C0281708027809315
:100E500014020E9438030E94DA020E9425050E94B3
:100E6000EB038091E501882319F21092E601C0CFCF
:100E700080E090E0A0E2B3E48093190290931A021C
:100E8000A0931B02B0931C021092EE011092ED0190
:100E90001092EC011092EB011092F20110922502D7
:100EA000DF91CF911F910F91FF90EF90DF90CF9046
:100EB000AF900895CF93DF93CDB7DEB7C154D1097A
:100EC0000FB6F894DEBF0FBECDBF0E94D52386E2D9
:100ED00092E00E94362086E292E00E94ED1C86E2BB
:100EE00092E00E94811D26E040E855E260E070E05B
:100EF00087E393E00E94DE251AE0F12E11E0809155
:100F00000D02882379F066E272E0CE0101960E941C
:100F1000D805BE016F5F7F4F84EF91E00E94410AC8
:100F200010920D0200910A02013091F40093E60143
:100F30001092E50110920C0210920B020E949B0687
:100F400000930D02F0920A021092120210920E0209
:100F500080910A028230A9F410920A0210921202C1
:100F600066E272E0CE0101960E94D805BE016F5F75
:100F70007F4F84EF91E00E942C0D10930D02109290
:100F80000E0280910A02833031F410930D02109208
:100F90000A021092120280910A02843041F41093E6
:100FA0000D0210920A021092120210920E0280910B
:100FB0000A028A30F9F41093130210920A02109276
:100FC000120266E272E0CE0101960E94D805BE01CF
:100FD0006F5F7F4F84EF91E00E94B30D10930D027D
:100FE00010920A02109212021092130210920E0234
:100FF0001092100280910E02882369F066E272E07E
:10100000CE0101960E94D805BE016F5F7F4F84EF2D
:1010100091E00E94600B10930E0271CFFC01818958
:1010200081110AC040E050E060E270EC41835283DD
:101030006383748381E0818B0895CF93DF93EC0108
:1010400020E030E040EC5FEB69817A818B819C810C
:101050000E94862887FF08C040E050E060EC7FEBEC
:1010600049835A836B837C83DF91CF910895CF921C
:10107000DF92EF92FF92CF93DF93EC01CD80DE8081
:10108000EF80F884C986DA86EB86FC862D853E855E
:101090004F85588969817A818B819C810E942228A1
:1010A0009B01AC0169837A838B839C83C701B60162
:1010B0000E9422286B017C0120E030E040E253E4F2
:1010C0000E946D2918162CF0CD82DE82EF82F88600
:1010D0000DC040E050E060E273E44D835E836F83B7
:1010E000788719821A821B821C82198ADF91CF911C
:1010F000FF90EF90DF90CF900895CF93DF93EC01B6
:101100008881813019F4CE010E940E0888818111F6
:1011100003C0CE010E941D08CE01DF91CF910C9437
:1011200037088F929F92AF92BF92CF92DF92EF9249
:10113000FF920F931F93CF93DF9300D000D000D086
:10114000CDB7DEB75C014B01FC016081CE01019699
:101150000E94F627F3E0AF0EB11CBE016F5F7F4F18
:10116000C5010E94C727CE0101960E944327CC24C7
:10117000CA94DC2C95E0E92EF12C09E110E02EE177
:1011800030E043E750E06AE570E0C4010E946E156C
:10119000C12CD12C2EE130E043E750E06AE570E04D
:1011A000C4010E9468140BE110E020E230E042E745
:1011B00050E069E570E0C4010E94681422E0C22E8C
:1011C000EE24EA94FE2C00E010E0950148E750E0A0
:1011D00062E670E0C4010E941518A12CB12C46E60D
:1011E000C42ED12C58E6E52EF12C0EE610E020E7B7
:1011F00030E04EE650E061E670E0C4010E942D133D
:1012000069E9C62ED12C01E910E020E730E041E980
:1012100050E061E670E0C4010E942D1326960FB6DF
:10122000F894DEBF0FBECDBFDF91CF911F910F911C
:10123000FF90EF90DF90CF90BF90AF909F908F90F6
:1012400008958F929F92AF92BF92CF92DF92EF92CA
:10125000FF920F931F93CF93DF9300D000D000D065
:10126000CDB7DEB75C014B01FC016181CE01019677
:101270000E94F627F9E0AF0EB11CBE016F5F7F4FF1
:10128000C5010E94C727CE0101960E944327CC24A6
:10129000CA94DC2CE5E0EE2EF12C09E110E02EE101
:1012A00030E043E750E06CE870E0C4010E946E1546
:1012B000C12CD12C2EE130E043E750E06CE870E027
:1012C000C4010E9468140BE110E020E230E042E724
:1012D00050E06BE870E0C4010E946814F2E0CF2E89
:1012E000EE24EA94FE2C00E010E0950148E750E07F
:1012F00064E970E0C4010E941518A12CB12CB6E677
:10130000CB2ED12C1AE9E12EF12C0EE610E022EAC8
:1013100030E04EE650E063E970E0C4010E942D1316
:1013200009E9C02ED12C01E910E022EA30E041E9C0
:1013300050E063E970E0C4010E942D1326960FB6B9
:10134000F894DEBF0FBECDBFDF91CF911F910F91FB
:10135000FF90EF90DF90CF90BF90AF909F908F90D5
:1013600008958F929F92AF92BF92CF92DF92EF92A9
:10137000FF920F931F93CF93DF9300D000D000D044
:10138000CDB7DEB75C014B01FC016281CE01019655
:101390000E94F627FFE0AF0EB11CBE016F5F7F4FCA
:1013A000C5010E94C727CE0101960E944327CC2485
:1013B000CA94DC2C95E0E92EF12C09E110E02EE135
:1013C00030E043E750E06EEB70E0C4010E946E1520
:1013D000C12CD12C2EE130E043E750E06EEB70E001
:1013E000C4010E9468140BE110E020E230E042E703
:1013F00050E06DEB70E0C4010E94681422E0C22E40
:10140000EE24EA94FE2C00E010E0950148E750E05D
:1014100066EC70E0C4010E941518A12CB12C46E6C0
:10142000C42ED12C5CECE52EF12C0EE610E024ED60
:1014300030E04EE650E065EC70E0C4010E942D13F0
:1014400069E9C62ED12C01E910E024ED30E041E934
:1014500050E065EC70E0C4010E942D1326960FB693
:10146000F894DEBF0FBECDBFDF91CF911F910F91DA
:10147000FF90EF90DF90CF90BF90AF909F908F90B4
:101480000895CF92DF92EF92FF920F931F93CF9325
:10149000DF93EB016DE67BE6CE010E94E11070E880
:1014A000E72EFF24F39400E210E020E431E040EA6C
:1014B00050E060E070E0CE010E94AE11E2E0CE2E7E
:1014C000FDE6EF2EFBE6FF2E00E018EB2BE231E00D
:1014D0004AE050E06AE070E0CE010E94D7172FE3A7
:1014E00031E04EE150E06DE770E0CE010E94D71789
:1014F000CC24CA94D12CB5E0EB2EF12C09E110E0FC
:1015000024E630E04CE350E06EE670E0CE010E944D
:101510006E15C12CD12C24E630E04CE350E06EE691
:1015200070E0CE010E9468140BE110E026E630E086
:101530004BE350E06DE670E0CE010E94681412E0CB
:10154000C12EEE24EA94F12C00E010E025E431E015
:1015500041E450E06AE770E0CE010E94D717CC2446
:10156000CA94D12C95E0E92EF12C09E110E024E693
:1015700030E04AE550E06EE670E0CE010E946E1564
:10158000C12CD12C24E630E04AE550E06EE670E054
:10159000CE010E9468140BE110E026E630E049E538
:1015A00050E06DE670E0CE010E94681422E0C22E89
:1015B000EE24EA94F12C00E010E02BE431E04FE55A
:1015C00050E061E770E0CE010E94D717CC24CA94A6
:1015D000D12C55E0E52EF12C09E110E024E630E0B5
:1015E00048E750E06EE670E0CE010E946E15CC2414
:1015F000CA9467E0D62E24E630E041E950E06EE67A
:1016000070E0CE010E946E15EE24EA94F12C04E104
:1016100010E024E630E04DE750E06EE670E0CE01E9
:101620000E94AE11EE24EA94E7E0FE2E24E630E0BC
:1016300041E950E06EE670E0CE010E94AE11C12C8F
:10164000D12CF5E0EF2EF12C02E310E024E630E09F
:1016500048E750E06EE670E0CE010E94681404E3B3
:1016600010E026E630E047E750E06DE670E0CE019E
:101670000E946814A2E0CA2EEE24EA94F12C00E045
:1016800010E022E531E04DE750E06AE770E0CE017E
:101690000E94D717EE24EA9487E0F82E28E531E07F
:1016A00046E950E060E770E0CE010E94D717DF9175
:1016B000CF911F910F91FF90EF90DF90CF90089501
:1016C000AF92BF92CF92DF92EF92FF920F931F9350
:1016D000CF93DF938C01EB01FF24F3949AE5E92E7D
:1016E00021E4D22E34E0C32E43E0B42E52E0A52EE6
:1016F000F801868D8111A5C1CE010E94ED1CCE019D
:101700000E94A01C813591050CF4D2C0F801878D90
:10171000811162C0CE010E945B1C8F36910594F04E
:10172000CE010E945B1C823D910564F4CE010E94B3
:101730007D1CCD973CF0CE010E947D1C8535910526
:101740000CF4C1C0CE010E945B1C8F3691059CF049
:10175000CE010E945B1C823D91056CF4CE010E947B
:101760007D1C8B3591053CF0CE010E947D1C83379A
:1017700091050CF4ABC0CE010E945B1C8F36910525
:101780009CF0CE010E945B1C823D91056CF4CE0161
:101790000E947D1C893791053CF0CE010E947D1C82
:1017A0008A3A91050CF495C0CE010E945B1C0B9700
:1017B0009CF0CE010E945B1C8E3691056CF4CE012C
:1017C0000E947D1C893C91053CF0CE010E947D1C4D
:1017D000813E91050CF480C0F801878D882309F4BF
:1017E00067C0CE010E945B1C873491059CF0CE013E
:1017F0000E945B1C883791056CF4CE010E947D1C11
:10180000873491053CF0CE010E947D1C8A379105FA
:101810000CF474C0CE010E945B1C873491053CF02F
:10182000CE010E945B1C883791050CF459C0CE0193
:101830000E945B1C833891053CF0CE010E945B1C2A
:10184000843B91050CF46FC0CE010E945B1C833871
:1018500091050CF076C0CE010E945B1C8F3B910578
:101860003CF0CE010E945B1C803F91050CF492C0BD
:10187000CE010E945B1C8F3B91050CF099C0CE01FC
:101880000E945B1C47973CF0CE010E945B1C803C91
:1018900091050CF4AFC0CE010E945B1C833D910505
:1018A0003CF0CE010E945B1C823291400CF4B7C028
:1018B000F8018689811104C0858D882309F418CF29
:1018C000F801F68E15CFF801F68A3CCFF801A68A0A
:1018D00052CFF801B68A68CFF801C68AF38E7CCF62
:1018E000CE010E947D1C8B3791050CF4A0CFCE0158
:1018F0000E947D1C8F3A910574F099CFF801808188
:101900008A3519F4F801D0820CC08F5F01C0815074
:10191000F801808306C0F80180818134C1F7F801A5
:10192000E082F8018CC0CE010E947D1C87349105B5
:101930000CF48ACFCE010E947D1C8A379105B4F049
:1019400083CFCE010E945B1C843B91050CF083CFBA
:10195000CE010E947D1C8B3791050CF47CCFCE010B
:101960000E947D1C8F3A910574F075CFF80181813A
:101970008A3519F4F801D182D4CF8F5F01C081502C
:10198000F8018183CECFF80181818134C1F7F8015C
:10199000E182C7CFCE010E947D1C873491050CF4F3
:1019A00067CFCE010E947D1C8A379105B4F060CFCD
:1019B000CE010E945B1C803F91050CF060CFCE01F0
:1019C0000E947D1C8B3791050CF459CFCE010E94EB
:1019D0007D1C8F3A9105E4F052CFF80182818A355F
:1019E00019F4F801D2829DCF8F5F01C08150F801B8
:1019F000828397CFCE010E947D1C853A91050CF41D
:101A00004ACFCE010E947D1C8D3B9105B4F043CF9F
:101A1000F8018281813451F7F801E28282CFCE0150
:101A20000E947D1C853A91050CF442CFCE010E94A4
:101A30007D1C8D3B91050CF03BCFF801F48EF58EAB
:101A400037CFDF91CF911F910F91FF90EF90DF90F3
:101A5000CF90BF90AF9008958F929F92AF92BF9218
:101A6000CF92DF92EF92FF920F931F93CF93DF936A
:101A7000CDB7DEB7C154D1090FB6F894DEBF0FBEA3
:101A8000CDBF4C015B016DE67BE6C5010E94E11014
:101A900060E8E62EFF24F39400E210E020E431E059
:101AA00040EA50E060E070E0C5010E94AE11CC2435
:101AB000CA94D12CE5E0EE2EF12C09E110E024E6E9
:101AC00030E048EC50E06AE070E0C5010E946E151D
:101AD000C12CD12C24E630E048EC50E06AE070E004
:101AE000C5010E9468140BE110E026E630E047ECE7
:101AF00050E069E070E0C5010E946814F2E0CF2E6A
:101B0000EE24EA94F12C00E010E02FE531E04DECFA
:101B100050E06CE170E0C5010E94D717F401838D9D
:101B200081110CC0B501CE0101960E94D805BE01FD
:101B30006F5F7F4FC4010E94600BF0CF138ECF5BAD
:101B4000DF4F0FB6F894DEBF0FBECDBFDF91CF9150
:101B50001F910F91FF90EF90DF90CF90BF90AF90CB
:101B60009F908F9008956F927F928F929F92AF92E5
:101B7000CF92DF92EF92FF920F931F93CF93DF9359
:101B8000CDB7DEB7C154D1090FB6F894DEBF0FBE92
:101B9000CDBF3C014B016DE67BE6C4010E94E11024
:101BA000F0E8EF2EFF24F39400E210E020E431E0AF
:101BB00040EA50E060E070E0C4010E94AE11A2E093
:101BC000CA2EBDE6EB2EBBE6FB2E00E010E024E6BD
:101BD00031E044E150E062E570E0C4010E94D717B3
:101BE0002EE631E042E350E060E570E0C4010E947F
:101BF000D717F3012789308D12E0A12E0DE6C02EF4
:101C00000BE6D02EE12CF12C0AE042E350E068EC28
:101C100070E0C4010E94C518F3018589813079F410
:101C200072E0C72EEDE6EE2EEBE6FE2E00E010E0B1
:101C300025E731E040E550E060E570E010C0863017
:101C400088F452E0C52E6DE6E62E6BE6F62E00E037
:101C500010E020E831E040E550E06EE670E0C401BD
:101C60000E94D717CC24CA94D12C15E0E12EF12C78
:101C700009E110E02AEA30E044EA50E066E170E071
:101C8000C4010E946E15C12CD12C2AEA30E044EA2E
:101C900050E066E170E0C4010E9468140BE110E0BE
:101CA0002CEA30E043EA50E065E170E0C4010E94B4
:101CB000681402E0C02EEE24EA94F12C00E010E05B
:101CC00027E831E04AEA50E06BE170E0C4010E948D
:101CD000D717CC24CA94D12C25E0E22EF12C09E1AF
:101CE00010E020E530E044EA50E062ED70E0C4012D
:101CF0000E946E15C12CD12C20E530E044EA50E062
:101D000062ED70E0C4010E9468140BE110E022E56E
:101D100030E043EA50E061ED70E0C4010E946814D5
:101D200032E0C32EEE24EA94F12C00E010E022E928
:101D300031E04AEA50E06CED70E0C4010E94D71730
:101D4000B401CE0101960E94D805BE016F5F7F4F9E
:101D5000C3010E949108B401CE0101960E94D805EA
:101D6000BE016F5F7F4FC3010E942109B401CE0104
:101D700001960E94D805BE016F5F7F4FC3010E948C
:101D8000B109F301848D81113DC0B401CE010196EA
:101D90000E94D805BE016F5F7F4FC3010E94600B98
:101DA000F301858D882321F1168EB401CE010196B1
:101DB0000E94D805BE016F5F7F4FC3010E9491084A
:101DC000B401CE0101960E94D805BE016F5F7F4F1E
:101DD000C3010E942109B401CE0101960E94D805D9
:101DE000BE016F5F7F4FC3010E94B109F301158EE1
:101DF000FFEF21EE84E0F15020408040E1F700C089
:101E00000000BFCFCF5BDF4F0FB6F894DEBF0FBE31
:101E1000CDBFDF91CF911F910F91FF90EF90DF9099
:101E2000CF90AF909F908F907F906F9008952F925A
:101E30003F924F925F926F927F928F929F92AF925A
:101E4000BF92CF92DF92EF92FF920F931F93CF93A7
:101E5000DF9300D01F92CDB7DEB79B838A83380112
:101E600088E0280250011124D501A859B0405D0135
:101E7000BC2DBF77CB2EEA81FB8186819781F1E073
:101E8000FB1708F462C06B0128E0C20ED11C8C1550
:101E90009D050CF46DC0AA81BB8118962D913C91D3
:101EA0001997FA0138962E173F070CF461C0AA81E2
:101EB000BB81ED91FC9111978A01095F1F4F9B0136
:101EC000295F3F4F0680F781E02DCD010995AA815A
:101ED000BB81ED91FC9111970084F185E02DCD013E
:101EE00009958501085F1F4FF5015490FFEFAF1A68
:101EF000BF0A98E0892E912C20E8422EAA81BB814E
:101F0000ED91FC911197842D85210284F385E02DBC
:101F1000882319F0B301CD0103C0B7018A819B81E9
:101F200009954694B1E08B1A910841F7A016B106C5
:101F3000D9F6AA81BB81ED91FC9111970484F585B6
:101F4000E02DCD010995C60175C0B8E0CB9E80019A
:101F500011244B01800E911E881599054CF0040F39
:101F6000151FEA81FB81208531852017310714F484
:101F7000019660C0AA81BB81ED91FC91119701503F
:101F800011090680F781E02D940121503109CD011E
:101F90000995AA81BB81ED91FC9111970084F1858F
:101FA000E02DCD0109952501B8E04B0E511CF5013E
:101FB000D490FFEFAF1ABF0A2C2C08E010E080E8A5
:101FC000382E832D8D212C2DA1F0AA81BB81ED917E
:101FD000FC9111970284F385E02DB301CD01298393
:101FE00009952981215089F736940150110949F743
:101FF00010C0AA81BB81ED91FC9111970284F385F9
:10200000E02DB701CD01298309952981215089F758
:10201000EBCF2A9491F6A414B50409F0C8CFAA8195
:10202000BB81ED91FC9111970484F585E02DCD01E4
:102030000995C4010F900F900F90DF91CF911F91E0
:102040000F91FF90EF90DF90CF90BF90AF909F9057
:102050008F907F906F905F904F903F902F9008955A
:10206000CF92EF92FF920F931F93DC01ED91FC91C1
:102070000684F785E02D09951F910F91FF90EF9051
:10208000CF900895CF92EF92FF920F931F93CF932B
:10209000DF93EC01262F6A3081F48EAD9FAD9BAFAC
:1020A0008AAF2CA92F778CAD9DAD38E0239F800D92
:1020B000911D11249DAF8CAF47C0862F8B7F893037
:1020C00009F442C06AAD7BAD203219F46115710587
:1020D000D9F1E881F981E8ACF9AC0EA91FA94CADA2
:1020E0005DAD0088F189E02DCCA8CE0109959BAFAC
:1020F0008AAF2DA9222341F14CA94F77642F70E0BC
:1021000028EF2403A00111242E813F81240F351FC5
:1021100028173907CCF48EAD9FAD9BAF8AAFCB01AA
:1021200033E0880F991F3A95E1F72CAD3DAD820F52
:10213000931F9DAF8CAF28853985240F351F281735
:10214000390714F41DAE1CAE81E090E0DF91CF9111
:102150001F910F91FF90EF90CF900895FC01138293
:1021600012828BE991E091838083158214827783B8
:1021700066835187408717861686158614861386D0
:102180001286178A168A158A148A138A128A118A65
:10219000108A10AA11AA12AA13AA81E084AB85ABF7
:1021A00017AA16AA8FEF9FEF91AF80AF17AE16AEAA
:1021B00015AE14AE13AE12AE0895FC018481958164
:1021C0000895AF92BF92CF92DF92EF92FF920F935A
:1021D0001F93CF93DF93EC015B01E881F9810885C0
:1021E0001985015011092E813F8121503109068046
:1021F000F781E02D40E050E060E070E00995E88173
:10220000F9810084F185E02DCE010995AE81BF8171
:10221000288539850E94EA296B017C0143E0F69408
:10222000E794D794C7944A95D1F7E881F981C1140E
:10223000D104E104F10409F444C00284F385E02DE3
:10224000B501CE010995E881F9810284F385E02D7D
:10225000B501CE010995E881F9810284F385E02D6D
:10226000B501CE010995E881F9810284F385E02D5D
:10227000B501CE010995E881F9810284F385E02D4D
:10228000B501CE010995E881F9810284F385E02D3D
:10229000B501CE010995E881F9810284F385E02D2D
:1022A000B501CE010995E881F9810284F385E02D1D
:1022B000B501CE01099581E0C81AD108E108F108FD
:1022C000B4CF0484F585E02DCE01DF91CF911F912D
:1022D0000F91FF90EF90DF90CF90BF90AF90099457
:1022E000EF92FF920F931F93CF93DF93EC0179014D
:1022F0008E819F816817790754F5888599854817DD
:1023000059072CF5E881F9810680F781E02D8A01D3
:102310009B01CE010995E881F9810084F185E02DCA
:10232000CE010995E881F9810284F385E02DB7019A
:10233000CE010995E881F9810484F585E02DCE016F
:10234000DF91CF911F910F91FF90EF900994DF9152
:10235000CF911F910F91FF90EF9008958F929F92D0
:10236000AF92BF92CF92DF92EF92FF920F931F93A3
:10237000CF93DF93EC016901480157012E813F8122
:10238000621773071CF0B90161507109888599853E
:10239000481759071CF0AC0141505109FB01EC0DE5
:1023A000FD1DE217F3071CF06901C61AD70A9A014E
:1023B000280D391D281739071CF04C01841A950A7D
:1023C000E881F9818A01080D191D015011099B014D
:1023D0002C0D3D1D215031090680F781E02DCE01E5
:1023E0000995E881F9810084F185E02DCE010995F8
:1023F0009401D6010E94EA296B017C01E881F981F0
:10240000C114D104E104F10461F00284F385E02DEC
:10241000B501CE01099581E0C81AD108E108F1089B
:10242000EDCF0484F585E02DCE01DF91CF911F9192
:102430000F91FF90EF90DF90CF90BF90AF909F9063
:102440008F9009942F923F924F925F926F927F925A
:102450008F929F92AF92BF92CF92DF92EF92FF92B4
:102460000F931F93CF93DF93CDB7DEB728970FB6A7
:10247000F894DEBF0FBECDBF4C016B0158874F8370
:10248000590162177307A1F40417150744F40427D0
:1024900015274027512758874F83042715272F8159
:1024A0003885021B130B0F5F1F4F21E030E015C072
:1024B0004F81588540175107B9F42617370734F470
:1024C000A626B726CA24DB24AC24BD2495012C19EA
:1024D0003D092F5F3F4F01E010E04F815885B60165
:1024E000C4010E94AE11A0C0FC0126813781621791
:1024F000730724F06901F1E0CF1AD108F401808557
:1025000091854F8158854817590724F0FC01319770
:10251000F887EF83A216B30624F05901F1E0AF1A51
:10252000B108081719071CF08C0101501109350179
:102530006C187D0828012F813885421A530A77FECE
:1025400008C07194619471084FEF5FEF5A8349831B
:1025500004C081E090E09A83898357FE08C05194BB
:1025600041945108EFEFFFEFFC83EB8304C021E0BF
:1025700030E03C832B83A301440F551F5E834D83C2
:102580001201220C331C97014F815885B601C401FA
:102590000E947011461457041CF581010619170991
:1025A000CA14DB0409F440C017FD0CC08F81988564
:1025B000EB81FC818E0F9F1F98878F832D813E8139
:1025C000021B130B49815A81C40ED51E020D131D27
:1025D00097014F815885B601C4010E947011E0CF68
:1025E000AD80BE80A418B5088F81988580179107AB
:1025F000D9F0B7FC06C089819A81C80ED91EA218ED
:10260000B308EF81F8852B813C81E20FF31FF88737
:10261000EF834D815E81A40EB51E9701AF01B60117
:10262000C4010E947011E0CF28960FB6F894DEBF67
:102630000FBECDBFDF91CF911F910F91FF90EF9013
:10264000DF90CF90BF90AF909F908F907F906F90D2
:102650005F904F903F902F9008952F923F924F920E
:102660005F926F927F928F929F92AF92BF92CF9222
:10267000DF92EF92FF920F931F93CF93DF93CDB72B
:10268000DEB766970FB6F894DEBF0FBECDBF9E8350
:102690008D832B013A013E8B2D8B4801B701B88603
:1026A000AF820417150774F46026712686249724D8
:1026B0006824792442265326242535253E8B2D8BEC
:1026C00042265326C814D90494F4C4018C259D25B0
:1026D000882699266401C826D9262D893E89622735
:1026E0007327262737273E8B2D8B62277327861467
:1026F000970484F468247924862497246824792410
:102700004D895E8944265526442555255E8B4D8B83
:10271000442655266C147D0401F58D899E89841507
:10272000950534F09D898E895E8A4D8A492E582EF2
:10273000AD89BE896A177B0734F0461657060CF43C
:102740002B016D897E89EF80F88483019201A301BA
:102750008D819E810E942212A2C0ED89FE89E4191A
:10276000F509F88BEF879401261937093A8B298BE5
:10277000AB01441955095C834B83C601861997093F
:102780009C878B87DB01ED89FE89AE1BBF0BBE8763
:10279000AD879601281939093C8B2B8B8C149D042D
:1027A00031F0A401415051095A87498702C09A86E5
:1027B00089861301A12CB12C1A82198289859A85E8
:1027C0008215930554F189819A8169897A890E94D9
:1027D0009529FB01E40DF51DC5016B857C850E94E3
:1027E00095299B01240D351D89819A81AF85B88972
:1027F0008A0F9B1F9A8389834B815C81A40EB51E2F
:10280000EF80F8848101A101BF018D819E810E942A
:1028100022125FEF251A350AD1CFC1018819990913
:10282000AD85BE85A89F4001A99F900CB89F900CD4
:102830001124C10186199709EB81FC81E89F5001A1
:10284000E99FB00CF89FB00C1124C214D3043CF1E2
:10285000C4016B897C890E949529FB012D893E89E1
:10286000E20FF31FC5016B857C850E9495299B01B2
:10287000240D351D4D855E85840E951E8B819C81B2
:10288000A80EB91EEF80F8848101A101BF018D81DE
:102890009E810E9422129FEF291A390AD6CF66968E
:1028A0000FB6F894DEBF0FBECDBFDF91CF911F9161
:1028B0000F91FF90EF90DF90CF90BF90AF909F90DF
:1028C0008F907F906F905F904F903F902F900895E2
:1028D0002F923F924F925F926F927F928F929F9230
:1028E000AF92BF92CF92DF92EF92FF920F931F931E
:1028F000CF93DF93CDB7DEB72C970FB6F894DEBF3A
:102900000FBECDBF1C017A8369835C834B83390181
:10291000270156014B01820E931E21E0821A910875
:10292000CA01800F911F01979E838D836801CE1885
:10293000DF08CE18DF08FA01EE0DFF1DF887EF83E0
:102940007501860121E030E0AF01C1010E94AE11A6
:10295000641875086418750829813A81240D351D9D
:102960003A83298301E010E093014D815E81698102
:102970007A81C1010E94AE11860121E030E04F81D1
:102980005885B401C1010E94AE1101E010E093012D
:102990004B815C8169817A81C1010E94AE118D8178
:1029A0009E81841995099A8789877401E418F5082E
:1029B000EE27FF27E419F509FC87EB87812C912C82
:1029C000481459040CF471C0CF80D884C818D908B1
:1029D0009501A60189819A81841995099C838B832D
:1029E000BC01C1010E94701109811A8108191909DD
:1029F0009501EF81F885E419F509FE83ED83AF01B8
:102A0000B801C1010E9470119501A6016701C40CB3
:102A1000D51CB601C1010E94701134016E0C7F1CDF
:102A200095014D815E81B301C1010E94701129851C
:102A30003A85280D391D3E832D8395014D815E8198
:102A4000B601C1010E9470119501C984DA84C40CD9
:102A5000D51CA601B301C1010E94701195014D81E1
:102A60005E816B817C81C1010E9470119501A6017C
:102A7000B801C1010E947011C4010196EB85FC856B
:102A8000E80DF91DE80FF91FFC87EB87F7FD0BC078
:102A9000F1E04F1A51082B853C852419350924197A
:102AA00035093C872B874C018BCF2C960FB6F894B9
:102AB000DEBF0FBECDBFDF91CF911F910F91FF9071
:102AC000EF90DF90CF90BF90AF909F908F907F90CE
:102AD0006F905F904F903F902F9008952F923F926C
:102AE0004F925F926F927F928F929F92AF92BF921E
:102AF000CF92DF92EF92FF920F931F93CF93DF93CA
:102B0000CDB7DEB762970FB6F894DEBF0FBECDBF6C
:102B10002C015B014A0138011701DA82C982AB013D
:102B2000420F531F5A874987C401800F911F9E830C
:102B30008D83FB01EE0DFF1DFC83EB832E193F09F6
:102B40002E193F0922503109BF016F5F7F4F760177
:102B5000A401C2010E94AE116301C218D308C218B9
:102B6000D3083101FFEF6F1A7F0A9401220D331D44
:102B700038872F83E980FA80860193014F81588539
:102B8000B501C2010E94AE1149855A854219530907
:102B90005A8749874A0151E0851A9108E980FA80ED
:102BA00093014F815885B401C2010E94AE118D81FD
:102BB0009E8182199309FC013197FE87ED87AA2433
:102BC000BB24A218B3089E828D82612C712C9C01BB
:102BD00049855A85241B350B388B2F8726143704DB
:102BE0000CF491C08F819885861997099A8B898BEF
:102BF000E980FA808C012B813C81AC01F901E2195A
:102C0000F309FA87E987BF01C2010E9422122B81D2
:102C10003C81261937093C872B87E980FA80CF80D1
:102C2000D884C218D30886012B813C81A6016B850C
:102C30007C85C2010E942212E980FA8009891A89E2
:102C40009401A801C401820D931D9A8B898BBC014C
:102C5000C2010E942212E980FA8086019401A60135
:102C60006D817E81C2010E942212E980FA80CF84A8
:102C7000D888ED81FE81CE0EDF1E86019401A6016B
:102C800069897A89C2010E942212E980FA802D8521
:102C90003E85220D331D3A8B298B89019401A801B1
:102CA0006D817E81C2010E942212E980FA80860134
:102CB0002B813C81A60169857A85C2010E9422127E
:102CC000E980FA8009891A892B813C81A8016B85EA
:102CD0007C85C2010E942212C3010196A60CB71C7A
:102CE000A80EB91EB7FC07C031E0231A3108A2189C
:102CF000B308A218B3084D815E814F5F5F4F5E83BA
:102D00004D833C016BCF62960FB6F894DEBF0FBEC9
:102D1000CDBFDF91CF911F910F91FF90EF90DF908A
:102D2000CF90BF90AF909F908F907F906F905F906B
:102D30004F903F902F9008952F923F924F925F9225
:102D40006F927F928F929F92AF92BF92CF92DF92BB
:102D5000EF92FF920F931F93CF93DF9300D000D099
:102D6000CDB7DEB76C012B013A013C832B8379018F
:102D7000F194E194F108A12CB12C2B813C812A150E
:102D80003B050CF466C04501860C971C9801A40114
:102D90002B803C80240C351CB101C6010E947011AF
:102DA0009801A401B2018B819C81681B790B7A8305
:102DB0006983C6010E94701143018A189B0898011B
:102DC000A401B101C6010E9470119801A40169819A
:102DD0007A81C6010E9470111501240C351C9801DE
:102DE0008B809C80860C971CA401B101C6010E94B7
:102DF0007011F201EA19FB09FA83E9839801A40131
:102E0000BF01C6010E947011980143016B817C8152
:102E1000861A970AA401B101C6010E947011980197
:102E2000A40169817A81C6010E947011C5010196D1
:102E3000EA0CFB1CE80EF91EF7FC09C0EB81FC81D3
:102E40003197FC83EB83EE1AFF0AEE1AFF0A5C014E
:102E500094CF0F900F900F900F90DF91CF911F9113
:102E60000F91FF90EF90DF90CF90BF90AF909F9029
:102E70008F907F906F905F904F903F902F9008952C
:102E80002F923F924F925F926F927F928F929F927A
:102E9000AF92BF92CF92DF92EF92FF920F931F9368
:102EA000CF93DF9300D000D000D0CDB7DEB75C0168
:102EB0001B012A013E832D8348016901D194C194ED
:102EC000D108612C712C2D813E81261537050CF41B
:102ED00055C0A301440D551D74018A012D813E8109
:102EE000220D331D3A832983B1018D819E81681B98
:102EF000790B7C836B83C5010E942212A2014619C3
:102F000057098A0129813A816B817C81C5010E9420
:102F10002212F301E20DF31DFC83EB8391012619CC
:102F200037093A8329834D815E81440D551D8A01FD
:102F30009F0169817A81C5010E942212A2016D81DF
:102F40007E81461B570B8A012B813C8169817A81E6
:102F5000C5010E942212C3010196C60CD71CC80EDF
:102F6000D91ED7FC09C0ED81FE813197FE83ED8328
:102F7000CE1ADF0ACE1ADF0A3C01A5CF26960FB67D
:102F8000F894DEBF0FBECDBFDF91CF911F910F919F
:102F9000FF90EF90DF90CF90BF90AF909F908F9079
:102FA0007F906F905F904F903F902F9008954F9239
:102FB0005F926F927F928F929F92AF92BF92CF92C9
:102FC000DF92EF92FF920F931F93CF93DF935C01F9
:102FD000CB014A0138012701DC2CE9012991222388
:102FE00099F0D501ED91FC910684F785E02DCD2C6B
:102FF00072018301A401BC01C5010995F501268177
:1030000037812817390754F7DF91CF911F910F911E
:10301000FF90EF90DF90CF90BF90AF909F908F90F8
:103020007F906F905F904F9008952F923F924F92B4
:103030005F926F927F928F929F92AF92BF92CF9248
:10304000DF92EF92FF920F931F93CF93DF9300D005
:1030500000D000D0CDB7DEB74C017E836D835C839A
:103060004B83390118012701DC2CA12CB12CD30191
:1030700014968D919C911597A816B90640F5D40128
:10308000ED91FC91268537853A832983B501C301EB
:103090000E940E28CD2C72018101DC012C914B8104
:1030A0005C816D817E81C401E981FA8109959E83ED
:1030B0008D83D40116968D919C911797ED81FE8199
:1030C0008E179F0724F0FFEFAF1ABF0AD0CF8D8174
:1030D0009E8126960FB6F894DEBF0FBECDBFDF915E
:1030E000CF911F910F91FF90EF90DF90CF90BF9005
:1030F000AF909F908F907F906F905F904F903F9098
:103100002F9008954F925F926F927F928F929F922D
:10311000AF92BF92CF92DF92EF92FF920F931F93E5
:10312000CF93DF93EC01CB014A01F901380127016C
:10313000DC2C24915F012223B9F0E881F981068417
:10314000F785E02DCD2C72018301A401BC01CE01D5
:1031500009952FEFA21AB20A2E813F81281739074D
:103160001CF0F5012491E7CFDF91CF911F910F91D2
:10317000FF90EF90DF90CF90BF90AF909F908F9097
:103180007F906F905F904F9008952F923F924F9253
:103190005F926F927F928F929F92AF92CF92DF92C7
:1031A000EF92FF920F931F93CF93DF93CDB7DEB7CC
:1031B00061970FB6F894DEBF0FBECDBF4C013B0147
:1031C0002A01C90117017601CA2C402F50E0BE0127
:1031D0006F5F7F4F0E94842C81019E012F5F3F4FC4
:1031E000A201B301C4010E94D71761960FB6F894EB
:1031F000DEBF0FBECDBFDF91CF911F910F91FF902A
:10320000EF90DF90CF90AF909F908F907F906F90D6
:103210005F904F903F902F9008952F923F924F9242
:103220005F926F927F928F929F92AF92BF92CF9256
:10323000DF92EF92FF920F931F93CF93DF93CDB75F
:10324000DEB7E4970FB6F894DEBF0FBECDBF8C019A
:103250001B01DA012D913D914D915C9113972D87C2
:103260003E874F87588B50964D915D916D917C9123
:10327000539749875A876B877C876D857E858F85B5
:10328000988929853A854B855C85621B730B840B75
:10329000950B6D8F7E8F8F8F98A31C964D915D91AE
:1032A0006D917C911F9749A35AA36BA37CA354965D
:1032B0006D917D918D919C915797698F7A8F8B8FAE
:1032C0009C8F29A13AA14BA15CA1261B370B480B6F
:1032D000590B2DA33EA34FA358A718964D915D916E
:1032E0006D917C911B97498B5A8B6B8B7C8BCB019F
:1032F000BA0129853A854B855C85621B730B840B6B
:10330000950B69A77AA78BA79CA714964D915D9101
:103310006D917C9117974DA75EA76FA778AB898DAC
:103320009A8DAB8DBC8D481B590B6A0B7B0B49AB3F
:103330005AAB6BAB7CAB2DA13EA14FA158A56D8DB7
:103340007E8D8F8D98A10E9471296B017C0129A926
:103350003AA94BA95CA969A57AA58BA59CA50E9451
:103360007129C61AD70AE80AF90AD801D096CD926F
:10337000DD92ED92FC92D397CD28CE28CF2809F488
:103380009CC1D1012D913D914D915C911397298361
:103390003A834B835C835096CD90DD90ED90FC900A
:1033A000539729013A014C185D086E087F0818965A
:1033B0002D913D914D915C911B972D833E834F83C1
:1033C00058872C193D094E095F092D8B3E8B4F8B79
:1033D000588FA30192016DA17EA18FA198A50E9493
:1033E00071294B015C012D893E894F89588D69A94E
:1033F0007AA98BA99CA90E947129861A970AA80A02
:10340000B90AF801808E918EA28EB38E6D8D7E8D5D
:103410008F8D98A10E9471294B015C01A30192013B
:1034200069A57AA58BA59CA50E947129861A970A81
:10343000A80AB90A848E958EA68EB78EA70196012A
:103440006D857E858F8598890E9471294B015C016D
:1034500029813A814B815C8169857A858B859C8540
:103460000E947129861A970AA80AB90AA50194012F
:1034700069A17AA18BA19CA10E9471292B013C0119
:103480002D813E814F81588569857A858B859C8504
:103490000E9471294B015C01A701960169897A8913
:1034A0008B899C890E947129861A970AA80AB90AF1
:1034B000A50194016DA57EA58FA598A90E947129EB
:1034C000460E571E681E791E29813A814B815C8108
:1034D00069897A898B899C890E9471296B017C0199
:1034E0002D813E814F8158856D857E858F85988998
:1034F0000E947129C61AD70AE80AF90AA70196019B
:10350000698D7A8D8B8D9C8D0E947129460E571E78
:10351000681E791E40A251A262A273A2D101149624
:103520002D913D914D915C91179729833A834B835F
:103530005C835496CD90DD90ED90FC9057972901D7
:103540003A014C185D086E087F081C962D913D913C
:103550004D915C911F972D833E834F8358872C1983
:103560003D094E095F092D8B3E8B4F8B588FA30170
:1035700092016DA17EA18FA198A50E9471294B0196
:103580005C012D893E894F89588D69A97AA98BA93B
:103590009CA90E947129861A970AA80AB90A84A2CE
:1035A00095A2A6A2B7A26D8D7E8D8F8D98A10E9447
:1035B00071294B015C01A301920169A57AA58BA534
:1035C0009CA50E947129861A970AA80AB90A80A6A2
:1035D00091A6A2A6B3A6A70196016D857E858F85CB
:1035E00098890E9471294B015C0129813A814B81A4
:1035F0005C8169857A858B859C850E947129861AF4
:10360000970AA80AB90AA501940169A17AA18BA118
:103610009CA10E9471294B015C012D813E814F814B
:10362000588569857A858B859C850E9471292B0137
:103630003C01A701960169897A898B899C890E943E
:103640007129461A570A680A790AA30192016DA5E1
:103650007EA58FA598A90E947129860E971EA81E87
:10366000B91E29813A814B815C8169897A898B896C
:103670009C890E9471296B017C012D813E814F81C3
:1036800058856D857E858F8598890E947129C61A17
:10369000D70AE80AF90AA7019601698D7A8D8B8D00
:1036A0009C8D0E947129860E971EA81EB91E84A6A5
:1036B00095A6A6A6B7A680E001C081E0E4960FB665
:1036C000F894DEBF0FBECDBFDF91CF911F910F9158
:1036D000FF90EF90DF90CF90BF90AF909F908F9032
:1036E0007F906F905F904F903F902F900895AF9292
:1036F000BF92CF92DF92EF92FF920F931F93CF93DF
:10370000DF93EC01A888B9888C899D890A891B8977
:10371000A816B90609F45FC0BD8AAC8A288D398D18
:103720004A8D5B8DD5010E94132A6B017C012C8D83
:103730003D8D4E8D5F8DD8010E94132AC60ED71E77
:10374000E81EF91E88A199A1AAA1BBA1C80ED91E85
:10375000EA1EFB1E28A939A94AA95BA9C701B6011F
:103760000E94A929DA01C9016C817D816A35710540
:1037700071F018F4672B41F02CC0643B710521F007
:103780006E30714021F025C06E817F8102C0688556
:1037900079856B01CC0CDD1CEE24D7FCE094FE2C6B
:1037A0002C153D054E055F0588F46B01EE24D7FC12
:1037B000E094FE2C2C153D054E055F0550F0CB0125
:1037C0000197AA2797FDA095BA2F03C080E090E04B
:1037D000DC019B878A878E899F890817190709F45E
:1037E0005FC01F8B0E8B2CA13DA14EA15FA1D50107
:1037F0000E94132A6B017C0128A539A54AA55BA567
:10380000D8010E94132AC60ED71EE81EF91E8CA5E9
:103810009DA5AEA5BFA5C80ED91EEA1EFB1E28A9F0
:1038200039A94AA95BA9C701B6010E94A929DA01F1
:10383000C9016C817D816A35710571F018F4672BBF
:1038400041F02CC0643B710521F06E30714021F0D5
:1038500025C06885798502C06E817F816B01CC0CA3
:10386000DD1CEE24D7FCE094FE2C2C153D054E0506
:103870005F0588F46B01EE24D7FCE094FE2C2C1538
:103880003D054E055F0550F0CB010197AA2797FD36
:10389000A095BA2F03C080E090E0DC019D878C8763
:1038A000DF91CF911F910F91FF90EF90DF90CF901C
:1038B000BF90AF900895CF93DF93EC010E94771BE8
:1038C0002C813D812115310519F48A859B8512C013
:1038D0002A35310519F48C859D850CC08E819F8118
:1038E000243B310519F42A853B8502C02C853D8592
:1038F000821B930BDF91CF910895CF93DF93EC015F
:103900000E94771B8C819D81009719F48C859D8581
:1039100014C08A35910529F4888599852A853B85C7
:1039200007C0843B910539F4888599852C853D85B0
:10393000821B930B02C08A859B85DF91CF910895EE
:10394000FC018685978508955F9A08958EBD0000D5
:103950000DB407FEFDCF8EB50895CF93DF931F9270
:10396000CDB7DEB7872F2B9A2D989CB59F7B9CBD3A
:103970002D9A9CB590649CBD69830E94A61C2B9ACD
:103980002D989CB59F7B9CBD2D9A9CB590649CBD49
:103990006981862F0F90DF91CF910C94A61C2CB5D6
:1039A000982F93702C7F922B9CBD9DB582FB88270E
:1039B00080F99E7F982B9DBD0895CF93DF93EC01F6
:1039C00040EF50E060E471E00E94AE1081EB91E0C6
:1039D00099838883DF91CF910895BF92CF92DF9230
:1039E000EF92FF920F931F93CF93DF93EC01ECB410
:1039F000FDB485E00E94CF1C5E9888EB0E94A61C57
:103A000080E00E94A61C082F88EC0E94A61C80E083
:103A10000E94A61C5E9A182F10951F770F77100F23
:103A2000163008F45AC05E9880E90E94A61C80E017
:103A30000E94A61C082F80E00E94A61C80E90E941C
:103A4000A61C80E00E94A61CD82E80E00E94A61C26
:103A5000C82E0D1140C080ED0E94A61C80E00E947F
:103A6000A61CD82E80E00E94A61C80ED0E94A61CF9
:103A700080E00E94A61CB82E80E00E94A61CDB10ED
:103A80002AC04C2D50E096E0559547959A95E1F760
:103A900094E0099FB0011124462B572B6FEF73E080
:103AA000641B750BA1F0282F30E086E03595279533
:103AB0008A95E1F784E0D89EA0011124242B352BB0
:103AC0002115310521F0798B688B3B8B2A8B812F57
:103AD00090E09F878E875E9A02C01F861E86ECBC90
:103AE000FDBC81E02E853F85232B09F480E0DF912A
:103AF000CF911F910F91FF90EF90DF90CF90BF90EB
:103B000008953F924F925F926F927F928F929F9211
:103B1000AF92BF92CF92DF92EF92FF920F931F93DB
:103B2000CF93DF93CDB7DEB7E0970FB6F894DEBF43
:103B30000FBECDBF5C0188E1ECE0F1E0DE015996FB
:103B400001900D928A95E1F7C5010E94DD102C01CC
:103B5000D501ED91FC910480F581E02D60E070E0ED
:103B6000C50109956FEF7FEFC5010E94E110F501D6
:103B70004085518557FF02C04F5F5F4F5595479570
:103B80004A505109D50116966D917C91179777FF90
:103B900002C06F5F7F4F7595679562537109CC24A2
:103BA000C394EE24EA94FE2C00E010E024E733E016
:103BB000C5010E948218C5010E94ED1C8111FBCF36
:103BC0004E01B9E18B0E911C612C712C382CD92C33
:103BD000F401448155816081718100E010E022E0B0
:103BE00030E0C5010E949C16D40114964D915C9161
:103BF00015976D917C9125E030E0C5010E949C16DF
:103C0000F401448155816081718100E018EF2AE060
:103C100030E0C5010E949C16C5010E94ED1C88235E
:103C2000B9F2730173E0EE0CFF1C7A95E1F781E0C5
:103C300090E08C0F9D1FE80EF91ED7015C964D9108
:103C40005C915D9758966D917C91599722E030E098
:103C5000C5010E944017F50180899189AA2797FD27
:103C6000A095BA2FF70180839183A283B383D501F6
:103C700052968D919C915397AA2797FDA095BA2FA4
:103C800084839583A683B78364E670E080E090E048
:103C90000E94AD236FEF7FEFC5010E94E110F2E0BB
:103CA0006F1621F1D50118964D915C91199757FF28
:103CB00002C04F5F5F4F559547954A505109F50136
:103CC0006681778177FF02C06F5F7F4F759567953B
:103CD00062537109CC24C394EE24EA94FE2C00E0D4
:103CE00010E028E633E0C5010E948218FFEF6F1A4A
:103CF0007F0A88E0880E911C93E06916710409F030
:103D000067CFAE014F5F5F4F632D7D2DC5010E94D0
:103D10000D19D501ED91FC910480F581E02DB201E2
:103D2000C5010995C5010E94ED1C8111FBCFE096EC
:103D30000FB6F894DEBF0FBECDBFDF91CF911F91BC
:103D40000F91FF90EF90DF90CF90BF90AF909F903A
:103D50008F907F906F905F904F903F900895862F47
:103D60005F982B982D989CB59F7B9CBD2D9A9CB5F8
:103D700090649CBD0E94A61C5F9A08956CE20E940C
:103D8000AF1E5F980895CF93DF931F92CDB7DEB734
:103D9000872F5F982B9A2D989CB59F7B9CBD2D9A61
:103DA0009CB590649CBD69830E94A61C2B9A2D989B
:103DB0009CB59F7B9CBD2D9A9CB590649CBD6981F0
:103DC000862F0E94A61C5F9A0F90DF91CF910895D5
:103DD000AF92BF92CF92DF92EF92FF920F931F9319
:103DE000CF93DF93EC017B016A0159016AE20E94E3
:103DF000AF1EB701CE010E94C31EB501CE010E94C5
:103E0000C31E6BE2CE010E94AF1EB601CE010E941E
:103E1000C31EB801CE01DF91CF911F910F91FF908A
:103E2000EF90DF90CF90BF90AF900C94C31E862F81
:103E30005F982B9A2D989CB59F7B9CBD2D9A9CB525
:103E400090649CBD0E94A61C5F9A08950F931F93D7
:103E5000CF93DF93EC016930710519F06A35710574
:103E600071F48AE590E09D838C8380EF90E09F83DE
:103E70008E8380E491E09987888718E434C06231AA
:103E8000710519F0643B710571F484EB90E09D833A
:103E90008C8380E491E09F838E8380EF90E099870C
:103EA000888718E320C06B31710521F07E7F6E306A
:103EB000710571F48EE091E09D838C8380EF90E03A
:103EC0009F838E8380E491E09987888718E80BC0F0
:103ED0001D821C8280E491E09F838E8380EF90E0BE
:103EE0009987888718EE66E3CE010E94AF1E612F86
:103EF000CE010E94171FE881F981088519850150BC
:103F000011092E813F81215031090680F781E02D72
:103F100040E050E060E070E0CE010995DF91CF9184
:103F20001F910F910895CF92DF92EF92FF920F931E
:103F30001F93CF93DF938C015F9A289862E370E020
:103F400080E090E00E94AD23289A68E770E080E06E
:103F500090E00E94AD23E0E8F3E0EF012196849128
:103F60008F3FA9F1982F907C9038B1F0903C39F1B7
:103F7000903411F0FE01F1CF8F73C82E7F01D82E3F
:103F8000FFEFEF1AFF0ADD20B9F0F7016491C801D5
:103F90000E94AF1EDA94F4CF8F73C82E7F01D82E03
:103FA000FFEFEF1AFF0ADD2039F0F7016491C80135
:103FB0000E94171FDA94F4CFCC0DD11DDBCF682FF0
:103FC0006F7370E080E090E00E94AD23D3CF60E09B
:103FD00070E0C801DF91CF911F910F91FF90EF909A
:103FE000DF90CF900C94E1101F93CF93DF93EC01FF
:103FF000162F61E088E00E949824289861E089E00B
:104000000E94982461E087E00E94982461E08DE09E
:104010000E94982461E08BE00E94982460E08CE08C
:104020000E94982429985F9A61E086E00E94982473
:104030005E9AFE01E05CFF4F10839CB5937F9CBDB0
:104040009CB59F7D9CBD0E94392085E00E94CF1CBD
:10405000CE010E94931F812F0E94CF1C6FE770E05A
:1040600089E0DF91CF911F910C94102460E00C94B3
:10407000F41FCF93CFB7F89480916D02811116C0D1
:1040800061E08AE00E94D12461E08AE00E949824E5
:104090008CB580618CBD8CB580648CBD61E08DE099
:1040A0000E94982461E08BE00E94982480916D0228
:1040B0008F5F80936D02CFBFCF91089580919E0254
:1040C00090E020919F02821B9109089520919F0208
:1040D00080919E02281750F4E22FF0E0E056FD4F49
:1040E000808190E02F5F20939F0208958FEF9FEFD4
:1040F0000895E0919F0280919E02E81730F4F0E06D
:10410000E056FD4F808190E008958FEF9FEF089576
:104110000895CF92DF92EF92FF920F931F93CF9368
:10412000DF937C01CB018A0120917A02222389F05E
:10413000EB016B01C40ED51ECC15DD0569F069914C
:10414000D701ED91FC910190F081E02DC701099517
:10415000F3CF642F0E94EA21C801DF91CF911F9114
:104160000F91FF90EF90DF90CF900895CF93DF9362
:104170001F92CDB7DEB7698320917A022223D1F056
:1041800020917B02203240F021E030E0FC013383BB
:10419000228380E090E015C080917C02E82FF0E05F
:1041A000E358FD4F998190838F5F80937C028093C9
:1041B0007B0205C061E0CE0101960E94EA2181E008
:1041C00090E00F90DF91CF910895FC01138212824D
:1041D00048EE53E060E070E0448355836683778364
:1041E00087EC91E091838083089510929F02109252
:1041F0009E0210927C0210927B020C943521862F35
:10420000413208F040E260EA72E00E9453211092CD
:104210009F0280939E02089521E00C94FF2081E08C
:1042200080937A0260939D0210927C0210927B022E
:1042300008950C940F210F93062F21E040917B02EB
:104240006DE772E080919D020E94972110927C029E
:1042500010927B0210927A020F91089561E00C9403
:104260001B218EE692E00C94E52010922D0381E054
:1042700080932B0310922A0361E082E10E94D124F3
:1042800061E083E10E94D124E9EBF0E080818E7F40
:10429000808380818D7F808388E48093B80085E46B
:1042A0008093BC000895413208F03FC090912D03E7
:1042B0009111FCCF91E090932D0320932B032FEFCE
:1042C0002093C00210920503240F209304039093BF
:1042D0002C0390912C03880F892B80932C038091C1
:1042E0002A03813041F410922A0380912C03809399
:1042F000BB0085EC01C085EE8093BC0080912D034E
:104300008130E1F380910503841710F44091050397
:1043100026E033E0FB01D9018A2F821B841718F4B1
:104320008D918193F9CF842F089580E008950F93A4
:10433000413208F046C090912D039111FCCF92E0DC
:1043400090932D0300932B039FEF9093C002109244
:10435000050340930403FB0166E073E0DB019A2F41
:10436000961B941718F491919D93F9CF10922C03FA
:1043700090912C03880F892B80932C0380912A0322
:10438000813041F410922A0380912C038093BB006A
:1043900085EC01C085EE8093BC00222321F0809142
:1043A0002D038230E1F38091C0028F3F61F0809154
:1043B000C002803251F08091C002803341F483E02A
:1043C00007C081E005C080E003C082E001C084E056
:1043D0000F910895613298F420912D03243089F4CF
:1043E0006093E202FC0184EE92E0DC012A2F281B9C
:1043F000261718F421912D93F9CF80E0089581E0DC
:10440000089582E0089585ED8093BC008091BC0002
:1044100084FDFCCF10922D03089585EC8093BC00A1
:1044200010922D0308951F920F920FB60F92112430
:104430002F933F934F935F936F937F938F939F93AC
:10444000AF93BF93EF93FF938091B900887F80363D
:1044500009F49CC068F5883209F45BC090F480319F
:1044600009F454C038F4882309F4F5C0883009F4FD
:104470004DC0F5C0883109F44CC0803209F45DC0EC
:10448000EEC0803409F468C048F4803309F455C0A4
:10449000883309F0E4C08093C002A8C0803509F4D5
:1044A0004FC0883509F45DC0883409F0D8C0D5C044
:1044B000883909F4C6C0A8F4883709F467C038F40D
:1044C000883609F463C0803709F460C0C8C08838F2
:1044D00009F4B7C0803909F45FC0803809F0BFC063
:1044E0005BC0803B09F485C038F4803A09F466C0AB
:1044F000883A09F47EC0B3C0803C09F4A6C0883C69
:1045000009F4A3C0883B09F489C0A9C080912C0399
:1045100010C09091050380910403981770F5E09105
:10452000050381E08E0F80930503F0E0EA5FFC4F06
:1045300080818093BB0085EC85C08093C0028DC0D4
:10454000E091050381E08E0F809305038091BB000D
:10455000F0E0EA5FFC4F80839091050380910403B3
:104560006DC0E091050381E08E0F8093050380917B
:10457000BB00F0E0EA5FFC4F808380912B03811148
:104580006CC081E080932A0384EA60C083E080935A
:104590002D031092C102CFCF8091C102803208F06A
:1045A00050C0E091C10281E08E0F8093C1028091E2
:1045B000BB00F0E0EE53FD4F8083BDCF8091C10280
:1045C000803230F4E091C102F0E0EE53FD4F1082F2
:1045D0000E9403226091C10270E0E0912603F091F5
:1045E000270382EC92E009951092C1020E940D22ED
:1045F00036C084E080932D031092E3021092E20211
:10460000E0912803F091290309958091E20281113C
:1046100005C081E08093E2021092E402E091E3029F
:1046200081E08E0F8093E302F0E0EC51FD4F80813A
:104630008093BB009091E3028091E202981708F406
:104640007ACF85E88093BC000AC085EC8093BC00DB
:1046500010922D0304C01092C0020E940322FF9109
:10466000EF91BF91AF919F918F917F916F915F91EA
:104670004F913F912F910F900FBE0F901F90189563
:104680001F920F920FB60F9211242F933F938F9387
:104690009F93AF93BF9380912F0390913003A0918C
:1046A0003103B091320330912E0323E0230F2D37D5
:1046B00020F40196A11DB11D05C026E8230F029626
:1046C000A11DB11D20932E0380932F0390933003DF
:1046D000A0933103B093320380913303909134035C
:1046E000A0913503B09136030196A11DB11D8093B1
:1046F000330390933403A0933503B0933603BF91F3
:10470000AF919F918F913F912F910F900FBE0F907E
:104710001F9018953FB7F89480913303909134031C
:10472000A0913503B091360326B5A89B05C02F3F55
:1047300019F00196A11DB11D3FBF6627782F892F63
:104740009A2F620F711D811D911D42E0660F771F28
:10475000881F991F4A95D1F70895CF92DF92EF9263
:10476000FF92CF93DF936B017C010E948A23EB01C0
:10477000C114D104E104F10489F00E9420280E94B0
:104780008A236C1B7D0B683E734090F381E0C81A4E
:10479000D108E108F108C851DC4FEACFDF91CF9191
:1047A000FF90EF90DF90CF900895789484B5826069
:1047B00084BD84B5816084BD85B5826085BD85B5C5
:1047C000816085BDEEE6F0E0808181608083E1E874
:1047D000F0E01082808182608083808181608083AC
:1047E000E0E8F0E0808181608083E1EBF0E08081AF
:1047F00084608083E0EBF0E0808181608083EAE781
:10480000F0E0808184608083808182608083808109
:10481000816080838081806880831092C1000895C8
:104820001F93CF93DF93182FEB0161E00E94982430
:10483000209711F460E004C0CF3FD10539F461E066
:10484000812FDF91CF911F910C94D124E12FF0E0C3
:10485000EB5EFB4FE491E330F9F048F4E130B9F05E
:10486000E230A1F584B5806284BDC8BD34C0E730B4
:10487000E9F0E83019F1E43049F580918000806278
:1048800080938000D0938B00C0938A0024C084B5AD
:10489000806884BDC7BD1FC0809180008068809300
:1048A0008000D0938900C093880015C08091B0002B
:1048B00080688093B000C093B3000DC08091B000B9
:1048C00080628093B000C093B40005C0C038D105A9
:1048D0000CF0B5CFAFCFDF91CF911F91089583300A
:1048E00081F028F4813099F08230A1F0089587306A
:1048F000A9F08830B9F08430D1F4809180008F7DA8
:1049000003C0809180008F7780938000089584B5E4
:104910008F7702C084B58F7D84BD08958091B000EB
:104920008F7703C08091B0008F7D8093B000089591
:10493000CF93DF9390E0FC01E75DFB4F2491FC01F6
:10494000E35CFB4F8491882349F190E0880F991F25
:10495000FC01E55AFB4FA591B4918F5A9B4FFC0186
:10496000C591D4919FB7611108C0F8948C9120959E
:1049700082238C93888182230AC0623051F4F89498
:104980008C91322F309583238C938881822B88835E
:1049900004C0F8948C91822B8C939FBFDF91CF91B0
:1049A00008950F931F93CF93DF931F92CDB7DEB778
:1049B000282F30E0F901EB5EFB4F8491F901E75DB0
:1049C000FB4F1491F901E35CFB4F04910023C9F004
:1049D000882321F069830E946F246981E02FF0E031
:1049E000EE0FFF1FEF5AFB4FA591B4919FB7F894BC
:1049F0008C91611103C01095812301C0812B8C9390
:104A00009FBF0F90DF91CF911F910F9108950E944A
:104A10006F2CFC01818D228D90E0805C9F4F821B6A
:104A200091098F7399270895FC01918D828D9817B4
:104A300031F0828DE80FF11D858D90E008958FEFA4
:104A40009FEF0895FC01918D828D981761F0828D02
:104A5000DF01A80FB11D5D968C91928D9F5F9F73B2
:104A6000928F90E008958FEF9FEF0895FC01848D61
:104A7000DF01A80FB11DA35ABF4F2C91848D90E088
:104A800001968F739927848FA689B7892C93A08963
:104A9000B1898C9180648C93938D848D981306C01A
:104AA0000288F389E02D80818F7D80830895CF93E4
:104AB000DF93EC01888D8823C9F0EA89FB89808126
:104AC00085FD05C0A889B9898C9186FD0FC00FB6F8
:104AD00007FCF5CF808185FFF2CFA889B9898C9139
:104AE00085FFEDCFCE010E943625E7CFDF91CF9134
:104AF0000895CF92DF92FF920F931F93CF93DF938E
:104B00001F92CDB7DEB76C01DC015B969C915B9781
:104B10005C968C915C97981307C05096ED91FC9130
:104B20005197808185FD32C0F601038D10E00F5F43
:104B30001F4F0F731127F02EF601848DF81211C04C
:104B40000FB607FCF9CFD6015096ED91FC91519725
:104B5000808185FFF1CFC60169830E943625698176
:104B6000EBCF838DE80FF11DE35AFF4F6083D60131
:104B70005B960C935B975296ED91FC9153978081D5
:104B80008062808381E058968C930DC0D601569642
:104B9000ED91FC91579760835096ED91FC91519760
:104BA00080818064808381E090E00F90DF91CF91DD
:104BB0001F910F91FF90DF90CF900895BF92CF92F9
:104BC000DF92EF92FF92CF93DF93EC016A017B01BA
:104BD000B22EE889F98982E08083411581EE580779
:104BE00061057105A1F060E079E08DE390E0A70137
:104BF00096010E94A9292150310941095109569570
:104C0000479537952795211580E1380798F0E88971
:104C1000F989108260E874E88EE190E0A7019601BE
:104C20000E94A929215031094109510956954795FA
:104C300037952795EC85FD853083EE85FF852083AC
:104C4000188EEC89FD89B082EA89FB8980818061B8
:104C50008083EA89FB89808188608083EA89FB8977
:104C6000808180688083EA89FB8980818F7D808351
:104C7000DF91CF91FF90EF90DF90CF90BF9008959C
:104C80001F920F920FB60F9211242F938F939F9321
:104C9000EF93FF93E0914703F09148038081E09107
:104CA0004D03F0914E0382FD12C09081809150031C
:104CB0008F5F8F7320915103821751F0E091500361
:104CC000F0E0E95CFC4F958F8093500301C0808138
:104CD000FF91EF919F918F912F910F900FBE0F90A9
:104CE0001F9018951F920F920FB60F9211242F93B9
:104CF0003F934F935F936F937F938F939F93AF9364
:104D0000BF93EF93FF9387E393E00E943625FF91D3
:104D1000EF91BF91AF919F918F917F916F915F9133
:104D20004F913F912F910F900FBE0F901F901895AC
:104D300010923A031092390388EE93E0A0E0B0E0BD
:104D400080933B0390933C03A0933D03B0933E03B9
:104D500087ED91E0909338038093370385EC90E0E2
:104D6000909344038093430384EC90E09093460334
:104D70008093450380EC90E0909348038093470331
:104D800081EC90E090934A038093490382EC90E099
:104D900090934C0380934B0386EC90E090934E03EA
:104DA00080934D03109250031092510310925203BE
:104DB000109253030895CF92DF92EF92FF920F93D8
:104DC0001F93CF93DF936C017A01EB01E60EF71E80
:104DD00000E010E0CE15DF0561F06991D601ED919C
:104DE000FC910190F081E02DC6010995080F191F73
:104DF000F1CFC801DF91CF911F910F91FF90EF90FC
:104E0000DF90CF900895CF93DF9300D000D0CDB73F
:104E1000DEB79B01AC01611571058105910569F053
:104E200069833A834B835C830E94972B29813A8163
:104E30004B815C810E94CB2903C060E070E0CB0114
:104E40000F900F900F900F90DF91CF910895CF9218
:104E5000DF92EF92FF926B017C0162177307840768
:104E6000950764F4CA01B9016C197D098E099F097F
:104E70000E9403276C0D7D1D8E1D9F1DFF90EF90DE
:104E8000DF90CF900895FC01808191810C94B92A24
:104E9000CF93DF93EC0188819981009711F00E94F4
:104EA000B92A198218821D821C821B821A82DF9104
:104EB000CF9108950F931F93CF93DF93EC018B0154
:104EC0006F5F7F4F888199810E94A52B009731F0F9
:104ED000998388831B830A8381E001C080E0DF918E
:104EE000CF911F910F910895CF93DF93EC018881AB
:104EF0009981892B29F08A819B818617970760F415
:104F0000CE010E945A27882341F08C819D81892BF4
:104F100019F4E881F981108281E0DF91CF91089541
:104F2000EF92FF920F931F93CF93DF93EC017B01DE
:104F30008A01BA010E947427811104C0CE010E9427
:104F4000482707C01D830C83B701888199810E947F
:104F50007D2CCE01DF91CF911F910F91FF90EF90AB
:104F60000895FC011182108213821282158214822C
:104F70006115710559F0FB0101900020E9F7AF01BF
:104F800041505109461B570B0C9490270895CF931D
:104F9000DF93EC01FB018617970761F06081718157
:104FA0006115710529F0448155810E94902702C046
:104FB0000E944827CE01DF91CF910895CF93DF93D0
:104FC000EC016115710561F0FB0101900020E9F72A
:104FD000AF0141505109461B570B0E94902702C058
:104FE0000E944827CE01DF91CF910895CF93DF93A0
:104FF00000D0CDB7DEB7FC0111821082138212827D
:105000001582148269831A82BE016F5F7F4F0E94EE
:10501000DE270F900F90DF91CF910895FC018481DE
:1050200095816817790720F480819181009729F490
:105030001092D40384ED93E00895860F971F08958E
:1050400008955058BB27AA270ED00DC1FED030F0CE
:1050500003D120F031F49F3F11F41EF4F3C00EF49D
:10506000E095E7FBE9C0E92F0FD180F3BA1762079B
:1050700073078407950718F071F49EF527C10EF4A5
:10508000E0950B2EBA2FA02D0B01B90190010C0158
:10509000CA01A0011124FF27591B99F0593F50F470
:1050A000503E68F11A16F040A22F232F342F4427C8
:1050B000585FF3CF469537952795A795F0405395C0
:1050C000C9F77EF41F16BA0B620B730B840BBAF090
:1050D0009150A1F0FF0FBB1F661F771F881FC2F7FB
:1050E0000EC0BA0F621F731F841F48F4879577950F
:1050F0006795B795F7959E3F08F0B3CF9395880FC6
:1051000008F09927EE0F97958795089571D008F4C8
:1051100081E0089504D06894B111D9C00895BCD03D
:1051200088F09F5790F0B92F9927B751A0F0D1F090
:10513000660F771F881F991F1AF0BA95C9F712C01A
:10514000B13081F0C3D0B1E00895C0C0672F782F8F
:105150008827B85F39F0B93FCCF386957795679586
:10516000B395D9F73EF490958095709561957F4FF2
:105170008F4F9F4F0895E89409C097FB3EF4909598
:105180008095709561957F4F8F4F9F4F9923A9F020
:10519000F92F96E9BB279395F695879577956795AF
:1051A000B795F111F8CFFAF4BB0F11F460FF1BC0F3
:1051B0006F5F7F4F8F4F9F4F16C0882311F096E986
:1051C00011C0772321F09EE8872F762F05C0662334
:1051D00071F096E8862F70E060E02AF09A95660FED
:1051E000771F881FDAF7880F9695879597F90895A6
:1051F000990F0008550FAA0BE0E8FEEF16161706E8
:10520000E807F907C0F012161306E407F50798F04F
:10521000621B730B840B950B39F40A2661F0232B68
:10522000242B252B21F408950A2609F4A140A695E4
:105230008FEF811D811D089597F99F6780E870E0C9
:1052400060E008959FEF80EC089500240A941616FC
:10525000170618060906089500240A941216130664
:10526000140605060895092E0394000C11F48823F2
:1052700052F0BB0F40F4BF2B11F460FF04C06F5F0E
:105280007F4F8F4F9F4F089557FD9058440F551FE4
:1052900059F05F3F71F04795880F97FB991F61F0B8
:1052A0009F3F79F087950895121613061406551F2F
:1052B000F2CF4695F1DF08C0161617061806991F9B
:1052C000F1CF86957105610508940895E894BB2790
:1052D00066277727CB0197F908958ADF08F48FEFC7
:1052E0000895DB018F939F930E94082ABF91AF918D
:1052F000A29F800D911DA39F900DB29F900D112430
:105300000895AA1BBB1B51E107C0AA1FBB1FA6170C
:10531000B70710F0A61BB70B881F991F5A95A9F75E
:1053200080959095BC01CD01089597FB072E16F44A
:10533000009407D077FD09D00E94812907FC05D091
:105340003EF4909581959F4F0895709561957F4F9C
:105350000895A1E21A2EAA1BBB1BFD010DC0AA1FB6
:10536000BB1FEE1FFF1FA217B307E407F50720F0CE
:10537000A21BB30BE40BF50B661F771F881F991F49
:105380001A9469F760957095809590959B01AC0192
:10539000BD01CF010895052E97FB1EF400940E94D5
:1053A000E22957FD07D00E94A92907FC03D04EF43B
:1053B0000C94E22950954095309521953F4F4F4FE1
:1053C0005F4F089590958095709561957F4F8F4FB1
:1053D0009F4F08950E94F229332312F48A1B9B0BDE
:1053E0000C94032AA29FB001B39FC001A39F700D2C
:1053F000811D1124911DB29F700D811D1124911DDD
:1054000008950E94F229B7FF0895821B930B089517
:105410000E94F229A59F900DB49F900DA49F800D2E
:10542000911D11240895B7FF0C94082A0E94082AA0
:10543000821B930B0895EE0FFF1F0590F491E02D52
:105440000994CF93DF938230910510F482E090E0CD
:10545000E091D703F091D80320E030E0A0E0B0E085
:10546000309739F14081518148175907B8F04817F2
:10547000590771F482819381109729F013969C93B8
:105480008E9312972CC09093D8038093D70327C094
:105490002115310531F04217530718F0A901DB013E
:1054A00001C0EF019A01BD01DF010280F381E02D0F
:1054B000D7CF21153105F9F0281B390B24303105E0
:1054C00080F48A819B816115710521F0FB01938332
:1054D000828304C09093D8038093D703FE01329651
:1054E00044C0FE01E20FF31F8193919322503109D2
:1054F000398328833AC02091D5033091D603232BDA
:1055000041F420910201309103013093D60320939E
:10551000D50320910001309101012115310541F49D
:105520002DB73EB74091040150910501241B350B66
:10553000E091D503F091D603E217F307A0F42E1BF8
:105540003F0B2817390778F0AC014E5F5F4F2417E7
:10555000350748F04E0F5F1F5093D6034093D50395
:105560008193919302C0E0E0F0E0CF01DF91CF9111
:105570000895CF93DF93009709F487C0FC01329719
:1055800013821282C091D703D091D803209781F45F
:1055900020813181280F391F8091D5039091D60346
:1055A0008217930779F5F093D603E093D5036DC086
:1055B000DE0120E030E0AE17BF0750F412964D91A7
:1055C0005C9113979D014115510509F1DA01F3CF63
:1055D000B383A28340815181840F951F8A179B0753
:1055E00071F48D919C911197840F951F0296918370
:1055F000808312968D919C911397938382832115BA
:10560000310529F4F093D803E093D7033EC0D901C4
:105610001396FC93EE9312974D915D91A40FB51FD5
:10562000EA17FB0779F480819181840F951F029618
:10563000D90111969C938E938281938113969C93AA
:105640008E931297E0E0F0E08A819B81009719F039
:10565000FE01EC01F9CFCE01029628813981820F3B
:10566000931F2091D5033091D6032817390769F489
:10567000309729F41092D8031092D70302C01382F6
:105680001282D093D603C093D503DF91CF910895B2
:105690008F929F92AF92BF92CF92DF92EF92FF9242
:1056A000CF93DF93EC01688179818A819B816115B9
:1056B00071058105910521F464E279ED8BE597E0B0
:1056C0002DE133EF41E050E00E94CB2949015A011E
:1056D0009B01AC01A7EAB1E40E94082A6B017C019E
:1056E000ACEEB4EFA50194010E94162AC60ED71E97
:1056F000E81EF91EF7FE06C081E0C81AD108E108CD
:1057000080E8F80AC882D982EA82FB82C701B60122
:105710009F77DF91CF91FF90EF90DF90CF90BF9078
:10572000AF909F908F9008950E94482B089586E037
:1057300091E00E94482B0895609306017093070141
:1057400080930801909309010895A0E0B0E0EBEA8E
:10575000FBE20C94BD2CEC01CB01209719F40E94C4
:10576000212AB8C0FE01E60FF71F9E012250310921
:10577000E217F30708F4ACC0D9010D911C91119701
:1057800006171707B8F00530110508F49FC0A801E7
:10579000445051094617570708F498C002501109A0
:1057A000061B170B019311936D937C93CF010E94FD
:1057B000B92A8CC05B01A01AB10A4E01800E911E5D
:1057C000A091D703B091D803612C712C60E070E0F8
:1057D000109709F449C0A815B905C9F5ED90FC90DA
:1057E0001197670142E0C40ED11CCA14DB0478F1A2
:1057F00047018A189B08640142E0C40ED11C12962E
:10580000BC9012971396AC91B5E0CB16D10440F042
:10581000B282A38391828082D9018D939C9309C027
:105820000E5F1F4F0E0D1F1DF90111830083EB2D1D
:10583000FA2F6115710531F0DB011396FC93EE939D
:10584000129744C0F093D803E093D7033FC06D9103
:105850007C9111976616770608F43B01BD011296FC
:105860000D90BC91A02DB4CF6091D5037091D6035B
:1058700068157905E9F468167906D0F440910001BD
:10588000509101014115510541F44DB75EB760914A
:10589000040170910501461B570BE417F507C0F48E
:1058A000F093D603E093D503F901918380830EC072
:1058B0000E94212A7C01009759F0A801BE010E9494
:1058C000742CCE010E94B92AC70104C0CE0102C0C7
:1058D00080E090E0CDB7DEB7EEE00C94D92C81E00B
:1058E00090E0F8940C94F02CFB01DC0102C00190D4
:1058F0000D9241505040D8F70895FB01DC01019012
:105900000D920020E1F708954532510520F4423010
:1059100010F00C948F2CFB011082CB010895BB2753
:10592000FB015527AA27880F991FAA1FA41710F05B
:10593000A41B83955051B9F7A05DAA3308F0A95D67
:10594000A193009779F7B111B1931192CB010C9407
:10595000A92CDC01FC01672F71917723E1F73297C5
:1059600004C07C916D9370836291AE17BF07C8F33A
:1059700008952F923F924F925F926F927F928F92F3
:105980009F92AF92BF92CF92DF92EF92FF920F93CE
:105990001F93CF93DF93CDB7DEB7CA1BDB0B0FB6D8
:1059A000F894DEBF0FBECDBF09942A883988488895
:1059B0005F846E847D848C849B84AA84B984C8842B
:1059C000DF80EE80FD800C811B81AA81B981CE0F22
:1059D000D11D0FB6F894DEBF0FBECDBFED01089507
:1059E00014E0CCE6D4E004C0FE010E941D2A2296F9
:0A59F000CE36D107C9F7F894FFCFB7
:1059FA000000D903800001000000A0051400000087
:105A0A00140000002C01000078000000A000000033
:105A1A00DC00000053636F72653A00544845204E1B
:105A2A004F5420534F20504F535349424C4500473F
:105A3A00414D45210053544152540053434F52455E
:105A4A0053004D554C544900504C4159455200425F
:105A5A0041434B0047414D45204F56455200534361
:105A6A004F52453A004849474853434F524521004F
:105A7A00544F5020352100534156452053434F522D
:105A8A0045005155495400000000004210DB26072A
:105A9A00250725072507250725170F3010000000C1
:105AAA00004210DB26261FE81EBE1EAD1CA41C17D2
:105ABA000F301000000000B62089205E2066207991
:105ACA00208820000000007925DB260925222514DC
:045ADA002557250027
:00000001FF
